{
  "address": "0x124dDf9BdD2DdaD012ef1D5bBd77c00F05C610DA",
  "abi": [
    {
      "inputs": [
        {
          "internalType": "address",
          "name": "priceFeed",
          "type": "address"
        },
        {
          "internalType": "string",
          "name": "lowSvg",
          "type": "string"
        },
        {
          "internalType": "string",
          "name": "highSvg",
          "type": "string"
        }
      ],
      "stateMutability": "nonpayable",
      "type": "constructor"
    },
    {
      "inputs": [],
      "name": "DynamicSgvNft__TokenURINotFound",
      "type": "error"
    },
    {
      "anonymous": false,
      "inputs": [
        {
          "indexed": true,
          "internalType": "address",
          "name": "owner",
          "type": "address"
        },
        {
          "indexed": true,
          "internalType": "address",
          "name": "approved",
          "type": "address"
        },
        {
          "indexed": true,
          "internalType": "uint256",
          "name": "tokenId",
          "type": "uint256"
        }
      ],
      "name": "Approval",
      "type": "event"
    },
    {
      "anonymous": false,
      "inputs": [
        {
          "indexed": true,
          "internalType": "address",
          "name": "owner",
          "type": "address"
        },
        {
          "indexed": true,
          "internalType": "address",
          "name": "operator",
          "type": "address"
        },
        {
          "indexed": false,
          "internalType": "bool",
          "name": "approved",
          "type": "bool"
        }
      ],
      "name": "ApprovalForAll",
      "type": "event"
    },
    {
      "anonymous": false,
      "inputs": [
        {
          "indexed": true,
          "internalType": "uint256",
          "name": "tokenId",
          "type": "uint256"
        },
        {
          "indexed": false,
          "internalType": "int256",
          "name": "highValue",
          "type": "int256"
        }
      ],
      "name": "NftMinted",
      "type": "event"
    },
    {
      "anonymous": false,
      "inputs": [
        {
          "indexed": true,
          "internalType": "address",
          "name": "from",
          "type": "address"
        },
        {
          "indexed": true,
          "internalType": "address",
          "name": "to",
          "type": "address"
        },
        {
          "indexed": true,
          "internalType": "uint256",
          "name": "tokenId",
          "type": "uint256"
        }
      ],
      "name": "Transfer",
      "type": "event"
    },
    {
      "inputs": [
        {
          "internalType": "address",
          "name": "to",
          "type": "address"
        },
        {
          "internalType": "uint256",
          "name": "tokenId",
          "type": "uint256"
        }
      ],
      "name": "approve",
      "outputs": [],
      "stateMutability": "nonpayable",
      "type": "function"
    },
    {
      "inputs": [
        {
          "internalType": "address",
          "name": "owner",
          "type": "address"
        }
      ],
      "name": "balanceOf",
      "outputs": [
        {
          "internalType": "uint256",
          "name": "",
          "type": "uint256"
        }
      ],
      "stateMutability": "view",
      "type": "function"
    },
    {
      "inputs": [
        {
          "internalType": "uint256",
          "name": "tokenId",
          "type": "uint256"
        }
      ],
      "name": "getApproved",
      "outputs": [
        {
          "internalType": "address",
          "name": "",
          "type": "address"
        }
      ],
      "stateMutability": "view",
      "type": "function"
    },
    {
      "inputs": [],
      "name": "getHighImageURI",
      "outputs": [
        {
          "internalType": "string",
          "name": "",
          "type": "string"
        }
      ],
      "stateMutability": "view",
      "type": "function"
    },
    {
      "inputs": [],
      "name": "getPriceFeed",
      "outputs": [
        {
          "internalType": "contract AggregatorV3Interface",
          "name": "",
          "type": "address"
        }
      ],
      "stateMutability": "view",
      "type": "function"
    },
    {
      "inputs": [],
      "name": "getTokenCounter",
      "outputs": [
        {
          "internalType": "uint256",
          "name": "",
          "type": "uint256"
        }
      ],
      "stateMutability": "view",
      "type": "function"
    },
    {
      "inputs": [],
      "name": "getlowImageURI",
      "outputs": [
        {
          "internalType": "string",
          "name": "",
          "type": "string"
        }
      ],
      "stateMutability": "view",
      "type": "function"
    },
    {
      "inputs": [
        {
          "internalType": "address",
          "name": "owner",
          "type": "address"
        },
        {
          "internalType": "address",
          "name": "operator",
          "type": "address"
        }
      ],
      "name": "isApprovedForAll",
      "outputs": [
        {
          "internalType": "bool",
          "name": "",
          "type": "bool"
        }
      ],
      "stateMutability": "view",
      "type": "function"
    },
    {
      "inputs": [
        {
          "internalType": "int256",
          "name": "highValue",
          "type": "int256"
        }
      ],
      "name": "mintNft",
      "outputs": [],
      "stateMutability": "nonpayable",
      "type": "function"
    },
    {
      "inputs": [],
      "name": "name",
      "outputs": [
        {
          "internalType": "string",
          "name": "",
          "type": "string"
        }
      ],
      "stateMutability": "view",
      "type": "function"
    },
    {
      "inputs": [
        {
          "internalType": "uint256",
          "name": "tokenId",
          "type": "uint256"
        }
      ],
      "name": "ownerOf",
      "outputs": [
        {
          "internalType": "address",
          "name": "",
          "type": "address"
        }
      ],
      "stateMutability": "view",
      "type": "function"
    },
    {
      "inputs": [
        {
          "internalType": "uint256",
          "name": "",
          "type": "uint256"
        }
      ],
      "name": "s_tokenIdToHighValues",
      "outputs": [
        {
          "internalType": "int256",
          "name": "",
          "type": "int256"
        }
      ],
      "stateMutability": "view",
      "type": "function"
    },
    {
      "inputs": [
        {
          "internalType": "address",
          "name": "from",
          "type": "address"
        },
        {
          "internalType": "address",
          "name": "to",
          "type": "address"
        },
        {
          "internalType": "uint256",
          "name": "tokenId",
          "type": "uint256"
        }
      ],
      "name": "safeTransferFrom",
      "outputs": [],
      "stateMutability": "nonpayable",
      "type": "function"
    },
    {
      "inputs": [
        {
          "internalType": "address",
          "name": "from",
          "type": "address"
        },
        {
          "internalType": "address",
          "name": "to",
          "type": "address"
        },
        {
          "internalType": "uint256",
          "name": "tokenId",
          "type": "uint256"
        },
        {
          "internalType": "bytes",
          "name": "data",
          "type": "bytes"
        }
      ],
      "name": "safeTransferFrom",
      "outputs": [],
      "stateMutability": "nonpayable",
      "type": "function"
    },
    {
      "inputs": [
        {
          "internalType": "address",
          "name": "operator",
          "type": "address"
        },
        {
          "internalType": "bool",
          "name": "approved",
          "type": "bool"
        }
      ],
      "name": "setApprovalForAll",
      "outputs": [],
      "stateMutability": "nonpayable",
      "type": "function"
    },
    {
      "inputs": [
        {
          "internalType": "bytes4",
          "name": "interfaceId",
          "type": "bytes4"
        }
      ],
      "name": "supportsInterface",
      "outputs": [
        {
          "internalType": "bool",
          "name": "",
          "type": "bool"
        }
      ],
      "stateMutability": "view",
      "type": "function"
    },
    {
      "inputs": [
        {
          "internalType": "string",
          "name": "svg",
          "type": "string"
        }
      ],
      "name": "svgToImageURI",
      "outputs": [
        {
          "internalType": "string",
          "name": "",
          "type": "string"
        }
      ],
      "stateMutability": "pure",
      "type": "function"
    },
    {
      "inputs": [],
      "name": "symbol",
      "outputs": [
        {
          "internalType": "string",
          "name": "",
          "type": "string"
        }
      ],
      "stateMutability": "view",
      "type": "function"
    },
    {
      "inputs": [
        {
          "internalType": "uint256",
          "name": "tokenId",
          "type": "uint256"
        }
      ],
      "name": "tokenURI",
      "outputs": [
        {
          "internalType": "string",
          "name": "",
          "type": "string"
        }
      ],
      "stateMutability": "view",
      "type": "function"
    },
    {
      "inputs": [
        {
          "internalType": "address",
          "name": "from",
          "type": "address"
        },
        {
          "internalType": "address",
          "name": "to",
          "type": "address"
        },
        {
          "internalType": "uint256",
          "name": "tokenId",
          "type": "uint256"
        }
      ],
      "name": "transferFrom",
      "outputs": [],
      "stateMutability": "nonpayable",
      "type": "function"
    }
  ],
  "transactionHash": "0x75c6f0a4d1addb2b601856059eef07c587c5d94d0d3968f00a19d45d2545fee2",
  "args": [
    "0x2BB8B93F585B43b06F3d523bf30C203d3B6d4BD4",
    "<?xml version=\"1.0\" standalone=\"no\"?>\n<svg width=\"1024px\" height=\"1024px\" viewBox=\"0 0 1024 1024\" xmlns=\"http://www.w3.org/2000/svg\">\n  <path fill=\"#333\" d=\"M512 64C264.6 64 64 264.6 64 512s200.6 448 448 448 448-200.6 448-448S759.4 64 512 64zm0 820c-205.4 0-372-166.6-372-372s166.6-372 372-372 372 166.6 372 372-166.6 372-372 372z\"/>\n  <path fill=\"#E6E6E6\" d=\"M512 140c-205.4 0-372 166.6-372 372s166.6 372 372 372 372-166.6 372-372-166.6-372-372-372zM288 421a48.01 48.01 0 0 1 96 0 48.01 48.01 0 0 1-96 0zm376 272h-48.1c-4.2 0-7.8-3.2-8.1-7.4C604 636.1 562.5 597 512 597s-92.1 39.1-95.8 88.6c-.3 4.2-3.9 7.4-8.1 7.4H360a8 8 0 0 1-8-8.4c4.4-84.3 74.5-151.6 160-151.6s155.6 67.3 160 151.6a8 8 0 0 1-8 8.4zm24-224a48.01 48.01 0 0 1 0-96 48.01 48.01 0 0 1 0 96z\"/>\n  <path fill=\"#333\" d=\"M288 421a48 48 0 1 0 96 0 48 48 0 1 0-96 0zm224 112c-85.5 0-155.6 67.3-160 151.6a8 8 0 0 0 8 8.4h48.1c4.2 0 7.8-3.2 8.1-7.4 3.7-49.5 45.3-88.6 95.8-88.6s92 39.1 95.8 88.6c.3 4.2 3.9 7.4 8.1 7.4H664a8 8 0 0 0 8-8.4C667.6 600.3 597.5 533 512 533zm128-112a48 48 0 1 0 96 0 48 48 0 1 0-96 0z\"/>\n</svg>\n",
    "<svg viewBox=\"0 0 200 200\" width=\"400\"  height=\"400\" xmlns=\"http://www.w3.org/2000/svg\">\n  <circle cx=\"100\" cy=\"100\" fill=\"yellow\" r=\"78\" stroke=\"black\" stroke-width=\"3\"/>\n  <g class=\"eyes\">\n    <circle cx=\"61\" cy=\"82\" r=\"12\"/>\n    <circle cx=\"127\" cy=\"82\" r=\"12\"/>\n  </g>\n  <path d=\"m136.81 116.53c.69 26.17-64.11 42-81.52-.73\" style=\"fill:none; stroke: black; stroke-width: 3;\"/>\n</svg>"
  ],
  "numDeployments": 1,
  "solcInputHash": "44f85343ccdc7429c2e7dad6c6c9d4e8",
  "bytecode": "0x60a060405260006006553480156200001657600080fd5b5060405162003b4738038062003b4783398181016040528101906200003c9190620004e5565b6040518060400160405280600f81526020017f44796e616d696320535647204e465400000000000000000000000000000000008152506040518060400160405280600381526020017f44534e00000000000000000000000000000000000000000000000000000000008152508160009080519060200190620000c0929190620003a0565b508060019080519060200190620000d9929190620003a0565b505050620000ed826200016e60201b60201c565b6007908051906020019062000104929190620003a0565b5062000116816200016e60201b60201c565b600890805190602001906200012d929190620003a0565b508273ffffffffffffffffffffffffffffffffffffffff1660808173ffffffffffffffffffffffffffffffffffffffff1660601b815250505050506200093d565b606060006040518060400160405280601a81526020017f646174613a696d6167652f7376672b786d6c3b6261736536342c00000000000081525090506000620001e384604051602001620001c39190620005b6565b6040516020818303038152906040526200021260201b62000f3a1760201c565b90508181604051602001620001fa929190620005cf565b60405160208183030381529060405292505050919050565b606060008251141562000237576040518060200160405280600081525090506200039b565b600060405180606001604052806040815260200162003b0760409139905060006003600285516200026991906200066c565b620002759190620006c9565b600462000283919062000701565b905060006020826200029691906200066c565b67ffffffffffffffff811115620002b257620002b1620008cf565b5b6040519080825280601f01601f191660200182016040528015620002e55781602001600182028036833780820191505090505b509050818152600183018586518101602084015b8183101562000356576003830192508251603f8160121c168501518253600182019150603f81600c1c168501518253600182019150603f8160061c168501518253600182019150603f8116850151825360018201915050620002f9565b60038951066001811462000373576002811462000384576200038f565b613d3d60f01b60028303526200038f565b603d60f81b60018303525b50505050508093505050505b919050565b828054620003ae90620007d6565b90600052602060002090601f016020900481019282620003d257600085556200041e565b82601f10620003ed57805160ff19168380011785556200041e565b828001600101855582156200041e579182015b828111156200041d57825182559160200191906001019062000400565b5b5090506200042d919062000431565b5090565b5b808211156200044c57600081600090555060010162000432565b5090565b600062000467620004618462000620565b620005f7565b90508281526020810184848401111562000486576200048562000903565b5b62000493848285620007a0565b509392505050565b600081519050620004ac8162000923565b92915050565b600082601f830112620004ca57620004c9620008fe565b5b8151620004dc84826020860162000450565b91505092915050565b6000806000606084860312156200050157620005006200090d565b5b600062000511868287016200049b565b935050602084015167ffffffffffffffff81111562000535576200053462000908565b5b6200054386828701620004b2565b925050604084015167ffffffffffffffff81111562000567576200056662000908565b5b6200057586828701620004b2565b9150509250925092565b60006200058c8262000656565b62000598818562000661565b9350620005aa818560208601620007a0565b80840191505092915050565b6000620005c482846200057f565b915081905092915050565b6000620005dd82856200057f565b9150620005eb82846200057f565b91508190509392505050565b60006200060362000616565b90506200061182826200080c565b919050565b6000604051905090565b600067ffffffffffffffff8211156200063e576200063d620008cf565b5b620006498262000912565b9050602081019050919050565b600081519050919050565b600081905092915050565b6000620006798262000796565b9150620006868362000796565b9250827fffffffffffffffffffffffffffffffffffffffffffffffffffffffffffffffff03821115620006be57620006bd62000842565b5b828201905092915050565b6000620006d68262000796565b9150620006e38362000796565b925082620006f657620006f562000871565b5b828204905092915050565b60006200070e8262000796565b91506200071b8362000796565b9250817fffffffffffffffffffffffffffffffffffffffffffffffffffffffffffffffff048311821515161562000757576200075662000842565b5b828202905092915050565b60006200076f8262000776565b9050919050565b600073ffffffffffffffffffffffffffffffffffffffff82169050919050565b6000819050919050565b60005b83811015620007c0578082015181840152602081019050620007a3565b83811115620007d0576000848401525b50505050565b60006002820490506001821680620007ef57607f821691505b60208210811415620008065762000805620008a0565b5b50919050565b620008178262000912565b810181811067ffffffffffffffff82111715620008395762000838620008cf565b5b80604052505050565b7f4e487b7100000000000000000000000000000000000000000000000000000000600052601160045260246000fd5b7f4e487b7100000000000000000000000000000000000000000000000000000000600052601260045260246000fd5b7f4e487b7100000000000000000000000000000000000000000000000000000000600052602260045260246000fd5b7f4e487b7100000000000000000000000000000000000000000000000000000000600052604160045260246000fd5b600080fd5b600080fd5b600080fd5b600080fd5b6000601f19601f8301169050919050565b6200092e8162000762565b81146200093a57600080fd5b50565b60805160601c6131a46200096360003960008181610ae00152610bc101526131a46000f3fe608060405234801561001057600080fd5b506004361061012c5760003560e01c80636e02007d116100ad578063b88d4fde11610071578063b88d4fde14610343578063c87b56dd1461035f578063d77843c51461038f578063e4e65b0c146103ad578063e985e9c5146103dd5761012c565b80636e02007d1461029d57806370a08231146102bb57806395d89b41146102eb5780639e87a5cd14610309578063a22cb465146103275761012c565b806323b872dd116100f457806323b872dd146101e757806330d871c61461020357806342842e0e146102335780636352211e1461024f5780636bed54601461027f5761012c565b806301ffc9a71461013157806306fdde0314610161578063081812fc1461017f578063095ea7b3146101af5780631e930812146101cb575b600080fd5b61014b60048036038101906101469190612119565b61040d565b604051610158919061267e565b60405180910390f35b6101696104ef565b60405161017691906126cf565b60405180910390f35b610199600480360381019061019491906121e9565b610581565b6040516101a69190612617565b60405180910390f35b6101c960048036038101906101c491906120d9565b6105c7565b005b6101e560048036038101906101e09190612173565b6106df565b005b61020160048036038101906101fc9190611fc3565b61075c565b005b61021d600480360381019061021891906121a0565b6107bc565b60405161022a91906126cf565b60405180910390f35b61024d60048036038101906102489190611fc3565b61084f565b005b610269600480360381019061026491906121e9565b61086f565b6040516102769190612617565b60405180910390f35b6102876108f6565b60405161029491906126cf565b60405180910390f35b6102a5610988565b6040516102b29190612851565b60405180910390f35b6102d560048036038101906102d09190611f56565b610992565b6040516102e29190612851565b60405180910390f35b6102f3610a4a565b60405161030091906126cf565b60405180910390f35b610311610adc565b60405161031e9190612699565b60405180910390f35b610341600480360381019061033c9190612099565b610b04565b005b61035d60048036038101906103589190612016565b610b1a565b005b610379600480360381019061037491906121e9565b610b7c565b60405161038691906126cf565b60405180910390f35b610397610dfc565b6040516103a491906126cf565b60405180910390f35b6103c760048036038101906103c291906121e9565b610e8e565b6040516103d491906126b4565b60405180910390f35b6103f760048036038101906103f29190611f83565b610ea6565b604051610404919061267e565b60405180910390f35b60007f80ac58cd000000000000000000000000000000000000000000000000000000007bffffffffffffffffffffffffffffffffffffffffffffffffffffffff1916827bffffffffffffffffffffffffffffffffffffffffffffffffffffffff191614806104d857507f5b5e139f000000000000000000000000000000000000000000000000000000007bffffffffffffffffffffffffffffffffffffffffffffffffffffffff1916827bffffffffffffffffffffffffffffffffffffffffffffffffffffffff1916145b806104e857506104e7826110b3565b5b9050919050565b6060600080546104fe90612b57565b80601f016020809104026020016040519081016040528092919081815260200182805461052a90612b57565b80156105775780601f1061054c57610100808354040283529160200191610577565b820191906000526020600020905b81548152906001019060200180831161055a57829003601f168201915b5050505050905090565b600061058c8261111d565b6004600083815260200190815260200160002060009054906101000a900473ffffffffffffffffffffffffffffffffffffffff169050919050565b60006105d28261086f565b90508073ffffffffffffffffffffffffffffffffffffffff168373ffffffffffffffffffffffffffffffffffffffff161415610643576040517f08c379a000000000000000000000000000000000000000000000000000000000815260040161063a90612811565b60405180910390fd5b8073ffffffffffffffffffffffffffffffffffffffff16610662611168565b73ffffffffffffffffffffffffffffffffffffffff16148061069157506106908161068b611168565b610ea6565b5b6106d0576040517f08c379a00000000000000000000000000000000000000000000000000000000081526004016106c790612831565b60405180910390fd5b6106da8383611170565b505050565b806009600060065481526020019081526020016000208190555061070533600654611229565b6001600660008282546107189190612936565b925050819055506006547f25fe3a996149ce0f27840bd9ec024ac39e95985c0d3974c4fcaaed30903b56788260405161075191906126b4565b60405180910390a250565b61076d610767611168565b82611247565b6107ac576040517f08c379a00000000000000000000000000000000000000000000000000000000081526004016107a3906126f1565b60405180910390fd5b6107b78383836112dc565b505050565b606060006040518060400160405280601a81526020017f646174613a696d6167652f7376672b786d6c3b6261736536342c000000000000815250905060006108228460405160200161080e919061258c565b604051602081830303815290604052610f3a565b905081816040516020016108379291906125a3565b60405160208183030381529060405292505050919050565b61086a83838360405180602001604052806000815250610b1a565b505050565b60008061087b836115d6565b9050600073ffffffffffffffffffffffffffffffffffffffff168173ffffffffffffffffffffffffffffffffffffffff1614156108ed576040517f08c379a00000000000000000000000000000000000000000000000000000000081526004016108e4906127f1565b60405180910390fd5b80915050919050565b60606007805461090590612b57565b80601f016020809104026020016040519081016040528092919081815260200182805461093190612b57565b801561097e5780601f106109535761010080835404028352916020019161097e565b820191906000526020600020905b81548152906001019060200180831161096157829003601f168201915b5050505050905090565b6000600654905090565b60008073ffffffffffffffffffffffffffffffffffffffff168273ffffffffffffffffffffffffffffffffffffffff161415610a03576040517f08c379a00000000000000000000000000000000000000000000000000000000081526004016109fa906127b1565b60405180910390fd5b600360008373ffffffffffffffffffffffffffffffffffffffff1673ffffffffffffffffffffffffffffffffffffffff168152602001908152602001600020549050919050565b606060018054610a5990612b57565b80601f0160208091040260200160405190810160405280929190818152602001828054610a8590612b57565b8015610ad25780601f10610aa757610100808354040283529160200191610ad2565b820191906000526020600020905b815481529060010190602001808311610ab557829003601f168201915b5050505050905090565b60007f0000000000000000000000000000000000000000000000000000000000000000905090565b610b16610b0f611168565b8383611613565b5050565b610b2b610b25611168565b83611247565b610b6a576040517f08c379a0000000000000000000000000000000000000000000000000000000008152600401610b61906126f1565b60405180910390fd5b610b7684848484611780565b50505050565b6060610b87826117dc565b610bbd576040517ff565855900000000000000000000000000000000000000000000000000000000815260040160405180910390fd5b60007f000000000000000000000000000000000000000000000000000000000000000073ffffffffffffffffffffffffffffffffffffffff1663feaf968c6040518163ffffffff1660e01b815260040160a06040518083038186803b158015610c2557600080fd5b505afa158015610c39573d6000803e3d6000fd5b505050506040513d601f19601f82011682018060405250810190610c5d9190612216565b505050915050600060078054610c7290612b57565b80601f0160208091040260200160405190810160405280929190818152602001828054610c9e90612b57565b8015610ceb5780601f10610cc057610100808354040283529160200191610ceb565b820191906000526020600020905b815481529060010190602001808311610cce57829003601f168201915b5050505050905060096000858152602001908152602001600020548212610d9a5760088054610d1990612b57565b80601f0160208091040260200160405190810160405280929190818152602001828054610d4590612b57565b8015610d925780601f10610d6757610100808354040283529160200191610d92565b820191906000526020600020905b815481529060010190602001808311610d7557829003601f168201915b505050505090505b610da261181d565b610dd3610dad6104ef565b83604051602001610dbf9291906125c7565b604051602081830303815290604052610f3a565b604051602001610de49291906125a3565b60405160208183030381529060405292505050919050565b606060088054610e0b90612b57565b80601f0160208091040260200160405190810160405280929190818152602001828054610e3790612b57565b8015610e845780601f10610e5957610100808354040283529160200191610e84565b820191906000526020600020905b815481529060010190602001808311610e6757829003601f168201915b5050505050905090565b60096020528060005260406000206000915090505481565b6000600560008473ffffffffffffffffffffffffffffffffffffffff1673ffffffffffffffffffffffffffffffffffffffff16815260200190815260200160002060008373ffffffffffffffffffffffffffffffffffffffff1673ffffffffffffffffffffffffffffffffffffffff16815260200190815260200160002060009054906101000a900460ff16905092915050565b6060600082511415610f5d576040518060200160405280600081525090506110ae565b600060405180606001604052806040815260200161312f6040913990506000600360028551610f8c9190612936565b610f96919061298c565b6004610fa291906129bd565b90506000602082610fb39190612936565b67ffffffffffffffff811115610fcc57610fcb612c47565b5b6040519080825280601f01601f191660200182016040528015610ffe5781602001600182028036833780820191505090505b509050818152600183018586518101602084015b8183101561106d576003830192508251603f8160121c168501518253600182019150603f81600c1c168501518253600182019150603f8160061c168501518253600182019150603f8116850151825360018201915050611012565b6003895106600181146110875760028114611097576110a2565b613d3d60f01b60028303526110a2565b603d60f81b60018303525b50505050508093505050505b919050565b60007f01ffc9a7000000000000000000000000000000000000000000000000000000007bffffffffffffffffffffffffffffffffffffffffffffffffffffffff1916827bffffffffffffffffffffffffffffffffffffffffffffffffffffffff1916149050919050565b611126816117dc565b611165576040517f08c379a000000000000000000000000000000000000000000000000000000000815260040161115c906127f1565b60405180910390fd5b50565b600033905090565b816004600083815260200190815260200160002060006101000a81548173ffffffffffffffffffffffffffffffffffffffff021916908373ffffffffffffffffffffffffffffffffffffffff160217905550808273ffffffffffffffffffffffffffffffffffffffff166111e38361086f565b73ffffffffffffffffffffffffffffffffffffffff167f8c5be1e5ebec7d5bd14f71427d1e84f3dd0314c0f7b2291e5b200ac8c7c3b92560405160405180910390a45050565b61124382826040518060200160405280600081525061185a565b5050565b6000806112538361086f565b90508073ffffffffffffffffffffffffffffffffffffffff168473ffffffffffffffffffffffffffffffffffffffff16148061129557506112948185610ea6565b5b806112d357508373ffffffffffffffffffffffffffffffffffffffff166112bb84610581565b73ffffffffffffffffffffffffffffffffffffffff16145b91505092915050565b8273ffffffffffffffffffffffffffffffffffffffff166112fc8261086f565b73ffffffffffffffffffffffffffffffffffffffff1614611352576040517f08c379a000000000000000000000000000000000000000000000000000000000815260040161134990612731565b60405180910390fd5b600073ffffffffffffffffffffffffffffffffffffffff168273ffffffffffffffffffffffffffffffffffffffff1614156113c2576040517f08c379a00000000000000000000000000000000000000000000000000000000081526004016113b990612771565b60405180910390fd5b6113cf83838360016118b5565b8273ffffffffffffffffffffffffffffffffffffffff166113ef8261086f565b73ffffffffffffffffffffffffffffffffffffffff1614611445576040517f08c379a000000000000000000000000000000000000000000000000000000000815260040161143c90612731565b60405180910390fd5b6004600082815260200190815260200160002060006101000a81549073ffffffffffffffffffffffffffffffffffffffff02191690556001600360008573ffffffffffffffffffffffffffffffffffffffff1673ffffffffffffffffffffffffffffffffffffffff168152602001908152602001600020600082825403925050819055506001600360008473ffffffffffffffffffffffffffffffffffffffff1673ffffffffffffffffffffffffffffffffffffffff16815260200190815260200160002060008282540192505081905550816002600083815260200190815260200160002060006101000a81548173ffffffffffffffffffffffffffffffffffffffff021916908373ffffffffffffffffffffffffffffffffffffffff160217905550808273ffffffffffffffffffffffffffffffffffffffff168473ffffffffffffffffffffffffffffffffffffffff167fddf252ad1be2c89b69c2b068fc378daa952ba7f163c4a11628f55a4df523b3ef60405160405180910390a46115d183838360016119db565b505050565b60006002600083815260200190815260200160002060009054906101000a900473ffffffffffffffffffffffffffffffffffffffff169050919050565b8173ffffffffffffffffffffffffffffffffffffffff168373ffffffffffffffffffffffffffffffffffffffff161415611682576040517f08c379a000000000000000000000000000000000000000000000000000000000815260040161167990612791565b60405180910390fd5b80600560008573ffffffffffffffffffffffffffffffffffffffff1673ffffffffffffffffffffffffffffffffffffffff16815260200190815260200160002060008473ffffffffffffffffffffffffffffffffffffffff1673ffffffffffffffffffffffffffffffffffffffff16815260200190815260200160002060006101000a81548160ff0219169083151502179055508173ffffffffffffffffffffffffffffffffffffffff168373ffffffffffffffffffffffffffffffffffffffff167f17307eab39ab6107e8899845ad3d59bd9653f200f220920489ca2b5937696c3183604051611773919061267e565b60405180910390a3505050565b61178b8484846112dc565b611797848484846119e1565b6117d6576040517f08c379a00000000000000000000000000000000000000000000000000000000081526004016117cd90612711565b60405180910390fd5b50505050565b60008073ffffffffffffffffffffffffffffffffffffffff166117fe836115d6565b73ffffffffffffffffffffffffffffffffffffffff1614159050919050565b60606040518060400160405280601d81526020017f646174613a6170706c69636174696f6e2f6a736f6e3b6261736536342c000000815250905090565b6118648383611b78565b61187160008484846119e1565b6118b0576040517f08c379a00000000000000000000000000000000000000000000000000000000081526004016118a790612711565b60405180910390fd5b505050565b60018111156119d557600073ffffffffffffffffffffffffffffffffffffffff168473ffffffffffffffffffffffffffffffffffffffff16146119495780600360008673ffffffffffffffffffffffffffffffffffffffff1673ffffffffffffffffffffffffffffffffffffffff16815260200190815260200160002060008282546119419190612a17565b925050819055505b600073ffffffffffffffffffffffffffffffffffffffff168373ffffffffffffffffffffffffffffffffffffffff16146119d45780600360008573ffffffffffffffffffffffffffffffffffffffff1673ffffffffffffffffffffffffffffffffffffffff16815260200190815260200160002060008282546119cc9190612936565b925050819055505b5b50505050565b50505050565b6000611a028473ffffffffffffffffffffffffffffffffffffffff16611d96565b15611b6b578373ffffffffffffffffffffffffffffffffffffffff1663150b7a02611a2b611168565b8786866040518563ffffffff1660e01b8152600401611a4d9493929190612632565b602060405180830381600087803b158015611a6757600080fd5b505af1925050508015611a9857506040513d601f19601f82011682018060405250810190611a959190612146565b60015b611b1b573d8060008114611ac8576040519150601f19603f3d011682016040523d82523d6000602084013e611acd565b606091505b50600081511415611b13576040517f08c379a0000000000000000000000000000000000000000000000000000000008152600401611b0a90612711565b60405180910390fd5b805181602001fd5b63150b7a0260e01b7bffffffffffffffffffffffffffffffffffffffffffffffffffffffff1916817bffffffffffffffffffffffffffffffffffffffffffffffffffffffff191614915050611b70565b600190505b949350505050565b600073ffffffffffffffffffffffffffffffffffffffff168273ffffffffffffffffffffffffffffffffffffffff161415611be8576040517f08c379a0000000000000000000000000000000000000000000000000000000008152600401611bdf906127d1565b60405180910390fd5b611bf1816117dc565b15611c31576040517f08c379a0000000000000000000000000000000000000000000000000000000008152600401611c2890612751565b60405180910390fd5b611c3f6000838360016118b5565b611c48816117dc565b15611c88576040517f08c379a0000000000000000000000000000000000000000000000000000000008152600401611c7f90612751565b60405180910390fd5b6001600360008473ffffffffffffffffffffffffffffffffffffffff1673ffffffffffffffffffffffffffffffffffffffff16815260200190815260200160002060008282540192505081905550816002600083815260200190815260200160002060006101000a81548173ffffffffffffffffffffffffffffffffffffffff021916908373ffffffffffffffffffffffffffffffffffffffff160217905550808273ffffffffffffffffffffffffffffffffffffffff16600073ffffffffffffffffffffffffffffffffffffffff167fddf252ad1be2c89b69c2b068fc378daa952ba7f163c4a11628f55a4df523b3ef60405160405180910390a4611d926000838360016119db565b5050565b6000808273ffffffffffffffffffffffffffffffffffffffff163b119050919050565b6000611dcc611dc784612891565b61286c565b905082815260208101848484011115611de857611de7612c7b565b5b611df3848285612b15565b509392505050565b6000611e0e611e09846128c2565b61286c565b905082815260208101848484011115611e2a57611e29612c7b565b5b611e35848285612b15565b509392505050565b600081359050611e4c816130a4565b92915050565b600081359050611e61816130bb565b92915050565b600081359050611e76816130d2565b92915050565b600081519050611e8b816130d2565b92915050565b600082601f830112611ea657611ea5612c76565b5b8135611eb6848260208601611db9565b91505092915050565b600081359050611ece816130e9565b92915050565b600081519050611ee3816130e9565b92915050565b600082601f830112611efe57611efd612c76565b5b8135611f0e848260208601611dfb565b91505092915050565b600081359050611f2681613100565b92915050565b600081519050611f3b81613100565b92915050565b600081519050611f5081613117565b92915050565b600060208284031215611f6c57611f6b612c85565b5b6000611f7a84828501611e3d565b91505092915050565b60008060408385031215611f9a57611f99612c85565b5b6000611fa885828601611e3d565b9250506020611fb985828601611e3d565b9150509250929050565b600080600060608486031215611fdc57611fdb612c85565b5b6000611fea86828701611e3d565b9350506020611ffb86828701611e3d565b925050604061200c86828701611f17565b9150509250925092565b600080600080608085870312156120305761202f612c85565b5b600061203e87828801611e3d565b945050602061204f87828801611e3d565b935050604061206087828801611f17565b925050606085013567ffffffffffffffff81111561208157612080612c80565b5b61208d87828801611e91565b91505092959194509250565b600080604083850312156120b0576120af612c85565b5b60006120be85828601611e3d565b92505060206120cf85828601611e52565b9150509250929050565b600080604083850312156120f0576120ef612c85565b5b60006120fe85828601611e3d565b925050602061210f85828601611f17565b9150509250929050565b60006020828403121561212f5761212e612c85565b5b600061213d84828501611e67565b91505092915050565b60006020828403121561215c5761215b612c85565b5b600061216a84828501611e7c565b91505092915050565b60006020828403121561218957612188612c85565b5b600061219784828501611ebf565b91505092915050565b6000602082840312156121b6576121b5612c85565b5b600082013567ffffffffffffffff8111156121d4576121d3612c80565b5b6121e084828501611ee9565b91505092915050565b6000602082840312156121ff576121fe612c85565b5b600061220d84828501611f17565b91505092915050565b600080600080600060a0868803121561223257612231612c85565b5b600061224088828901611f41565b955050602061225188828901611ed4565b945050604061226288828901611f2c565b935050606061227388828901611f2c565b925050608061228488828901611f41565b9150509295509295909350565b61229a81612a4b565b82525050565b6122a981612a5d565b82525050565b60006122ba826128f3565b6122c48185612909565b93506122d4818560208601612b24565b6122dd81612c8a565b840191505092915050565b6122f181612adf565b82525050565b61230081612a95565b82525050565b6000612311826128fe565b61231b818561291a565b935061232b818560208601612b24565b61233481612c8a565b840191505092915050565b600061234a826128fe565b612354818561292b565b9350612364818560208601612b24565b80840191505092915050565b600061237d602d8361291a565b915061238882612c9b565b604082019050919050565b60006123a060098361292b565b91506123ab82612cea565b600982019050919050565b60006123c360328361291a565b91506123ce82612d13565b604082019050919050565b60006123e660258361291a565b91506123f182612d62565b604082019050919050565b6000612409601c8361291a565b915061241482612db1565b602082019050919050565b600061242c60248361291a565b915061243782612dda565b604082019050919050565b600061244f60198361291a565b915061245a82612e29565b602082019050919050565b600061247260298361291a565b915061247d82612e52565b604082019050919050565b600061249560448361292b565b91506124a082612ea1565b604482019050919050565b60006124b860028361292b565b91506124c382612f16565b600282019050919050565b60006124db60208361291a565b91506124e682612f3f565b602082019050919050565b60006124fe60188361291a565b915061250982612f68565b602082019050919050565b600061252160218361291a565b915061252c82612f91565b604082019050919050565b6000612544603d8361291a565b915061254f82612fe0565b604082019050919050565b600061256760438361292b565b91506125728261302f565b604382019050919050565b61258681612abf565b82525050565b6000612598828461233f565b915081905092915050565b60006125af828561233f565b91506125bb828461233f565b91508190509392505050565b60006125d282612393565b91506125de828561233f565b91506125e982612488565b91506125f48261255a565b9150612600828461233f565b915061260b826124ab565b91508190509392505050565b600060208201905061262c6000830184612291565b92915050565b60006080820190506126476000830187612291565b6126546020830186612291565b612661604083018561257d565b818103606083015261267381846122af565b905095945050505050565b600060208201905061269360008301846122a0565b92915050565b60006020820190506126ae60008301846122e8565b92915050565b60006020820190506126c960008301846122f7565b92915050565b600060208201905081810360008301526126e98184612306565b905092915050565b6000602082019050818103600083015261270a81612370565b9050919050565b6000602082019050818103600083015261272a816123b6565b9050919050565b6000602082019050818103600083015261274a816123d9565b9050919050565b6000602082019050818103600083015261276a816123fc565b9050919050565b6000602082019050818103600083015261278a8161241f565b9050919050565b600060208201905081810360008301526127aa81612442565b9050919050565b600060208201905081810360008301526127ca81612465565b9050919050565b600060208201905081810360008301526127ea816124ce565b9050919050565b6000602082019050818103600083015261280a816124f1565b9050919050565b6000602082019050818103600083015261282a81612514565b9050919050565b6000602082019050818103600083015261284a81612537565b9050919050565b6000602082019050612866600083018461257d565b92915050565b6000612876612887565b90506128828282612b89565b919050565b6000604051905090565b600067ffffffffffffffff8211156128ac576128ab612c47565b5b6128b582612c8a565b9050602081019050919050565b600067ffffffffffffffff8211156128dd576128dc612c47565b5b6128e682612c8a565b9050602081019050919050565b600081519050919050565b600081519050919050565b600082825260208201905092915050565b600082825260208201905092915050565b600081905092915050565b600061294182612abf565b915061294c83612abf565b9250827fffffffffffffffffffffffffffffffffffffffffffffffffffffffffffffffff0382111561298157612980612bba565b5b828201905092915050565b600061299782612abf565b91506129a283612abf565b9250826129b2576129b1612be9565b5b828204905092915050565b60006129c882612abf565b91506129d383612abf565b9250817fffffffffffffffffffffffffffffffffffffffffffffffffffffffffffffffff0483118215151615612a0c57612a0b612bba565b5b828202905092915050565b6000612a2282612abf565b9150612a2d83612abf565b925082821015612a4057612a3f612bba565b5b828203905092915050565b6000612a5682612a9f565b9050919050565b60008115159050919050565b60007fffffffff0000000000000000000000000000000000000000000000000000000082169050919050565b6000819050919050565b600073ffffffffffffffffffffffffffffffffffffffff82169050919050565b6000819050919050565b600069ffffffffffffffffffff82169050919050565b6000612aea82612af1565b9050919050565b6000612afc82612b03565b9050919050565b6000612b0e82612a9f565b9050919050565b82818337600083830152505050565b60005b83811015612b42578082015181840152602081019050612b27565b83811115612b51576000848401525b50505050565b60006002820490506001821680612b6f57607f821691505b60208210811415612b8357612b82612c18565b5b50919050565b612b9282612c8a565b810181811067ffffffffffffffff82111715612bb157612bb0612c47565b5b80604052505050565b7f4e487b7100000000000000000000000000000000000000000000000000000000600052601160045260246000fd5b7f4e487b7100000000000000000000000000000000000000000000000000000000600052601260045260246000fd5b7f4e487b7100000000000000000000000000000000000000000000000000000000600052602260045260246000fd5b7f4e487b7100000000000000000000000000000000000000000000000000000000600052604160045260246000fd5b600080fd5b600080fd5b600080fd5b600080fd5b6000601f19601f8301169050919050565b7f4552433732313a2063616c6c6572206973206e6f7420746f6b656e206f776e6560008201527f72206f7220617070726f76656400000000000000000000000000000000000000602082015250565b7f7b226e616d65223a220000000000000000000000000000000000000000000000600082015250565b7f4552433732313a207472616e7366657220746f206e6f6e20455243373231526560008201527f63656976657220696d706c656d656e7465720000000000000000000000000000602082015250565b7f4552433732313a207472616e736665722066726f6d20696e636f72726563742060008201527f6f776e6572000000000000000000000000000000000000000000000000000000602082015250565b7f4552433732313a20746f6b656e20616c7265616479206d696e74656400000000600082015250565b7f4552433732313a207472616e7366657220746f20746865207a65726f2061646460008201527f7265737300000000000000000000000000000000000000000000000000000000602082015250565b7f4552433732313a20617070726f766520746f2063616c6c657200000000000000600082015250565b7f4552433732313a2061646472657373207a65726f206973206e6f74206120766160008201527f6c6964206f776e65720000000000000000000000000000000000000000000000602082015250565b7f222c20226465736372697074696f6e223a22416e204e4654207468617420636860008201527f616e676573206261736564206f6e2074686520436861696e6c696e6b2046656560208201527f64222c2000000000000000000000000000000000000000000000000000000000604082015250565b7f227d000000000000000000000000000000000000000000000000000000000000600082015250565b7f4552433732313a206d696e7420746f20746865207a65726f2061646472657373600082015250565b7f4552433732313a20696e76616c696420746f6b656e2049440000000000000000600082015250565b7f4552433732313a20617070726f76616c20746f2063757272656e74206f776e6560008201527f7200000000000000000000000000000000000000000000000000000000000000602082015250565b7f4552433732313a20617070726f76652063616c6c6572206973206e6f7420746f60008201527f6b656e206f776e6572206f7220617070726f76656420666f7220616c6c000000602082015250565b7f2261747472696275746573223a205b7b2274726169745f74797065223a20226360008201527f6f6f6c6e657373222c202276616c7565223a203130307d5d2c2022696d61676560208201527f223a220000000000000000000000000000000000000000000000000000000000604082015250565b6130ad81612a4b565b81146130b857600080fd5b50565b6130c481612a5d565b81146130cf57600080fd5b50565b6130db81612a69565b81146130e657600080fd5b50565b6130f281612a95565b81146130fd57600080fd5b50565b61310981612abf565b811461311457600080fd5b50565b61312081612ac9565b811461312b57600080fd5b5056fe4142434445464748494a4b4c4d4e4f505152535455565758595a6162636465666768696a6b6c6d6e6f707172737475767778797a303132333435363738392b2fa26469706673582212202e00bf91f579284a99dfdab8f5e4717fadd331e1808d8c5e04ca5554c529ae1764736f6c634300080700334142434445464748494a4b4c4d4e4f505152535455565758595a6162636465666768696a6b6c6d6e6f707172737475767778797a303132333435363738392b2f",
  "devdoc": {
    "kind": "dev",
    "methods": {
      "approve(address,uint256)": {
        "details": "See {IERC721-approve}."
      },
      "balanceOf(address)": {
        "details": "See {IERC721-balanceOf}."
      },
      "getApproved(uint256)": {
        "details": "See {IERC721-getApproved}."
      },
      "isApprovedForAll(address,address)": {
        "details": "See {IERC721-isApprovedForAll}."
      },
      "name()": {
        "details": "See {IERC721Metadata-name}."
      },
      "ownerOf(uint256)": {
        "details": "See {IERC721-ownerOf}."
      },
      "safeTransferFrom(address,address,uint256)": {
        "details": "See {IERC721-safeTransferFrom}."
      },
      "safeTransferFrom(address,address,uint256,bytes)": {
        "details": "See {IERC721-safeTransferFrom}."
      },
      "setApprovalForAll(address,bool)": {
        "details": "See {IERC721-setApprovalForAll}."
      },
      "supportsInterface(bytes4)": {
        "details": "See {IERC165-supportsInterface}."
      },
      "symbol()": {
        "details": "See {IERC721Metadata-symbol}."
      },
      "tokenURI(uint256)": {
        "details": "See {IERC721Metadata-tokenURI}."
      },
      "transferFrom(address,address,uint256)": {
        "details": "See {IERC721-transferFrom}."
      }
    },
    "version": 1
  },
  "userdoc": {
    "kind": "user",
    "methods": {},
    "version": 1
  },
  "storageLayout": {
    "storage": [
      {
        "astId": 1296,
        "contract": "contracts/DynamicSvgNft.sol:DynamicSvgNft",
        "label": "_name",
        "offset": 0,
        "slot": "0",
        "type": "t_string_storage"
      },
      {
        "astId": 1298,
        "contract": "contracts/DynamicSvgNft.sol:DynamicSvgNft",
        "label": "_symbol",
        "offset": 0,
        "slot": "1",
        "type": "t_string_storage"
      },
      {
        "astId": 1302,
        "contract": "contracts/DynamicSvgNft.sol:DynamicSvgNft",
        "label": "_owners",
        "offset": 0,
        "slot": "2",
        "type": "t_mapping(t_uint256,t_address)"
      },
      {
        "astId": 1306,
        "contract": "contracts/DynamicSvgNft.sol:DynamicSvgNft",
        "label": "_balances",
        "offset": 0,
        "slot": "3",
        "type": "t_mapping(t_address,t_uint256)"
      },
      {
        "astId": 1310,
        "contract": "contracts/DynamicSvgNft.sol:DynamicSvgNft",
        "label": "_tokenApprovals",
        "offset": 0,
        "slot": "4",
        "type": "t_mapping(t_uint256,t_address)"
      },
      {
        "astId": 1316,
        "contract": "contracts/DynamicSvgNft.sol:DynamicSvgNft",
        "label": "_operatorApprovals",
        "offset": 0,
        "slot": "5",
        "type": "t_mapping(t_address,t_mapping(t_address,t_bool))"
      },
      {
        "astId": 4120,
        "contract": "contracts/DynamicSvgNft.sol:DynamicSvgNft",
        "label": "s_tokenCounter",
        "offset": 0,
        "slot": "6",
        "type": "t_uint256"
      },
      {
        "astId": 4122,
        "contract": "contracts/DynamicSvgNft.sol:DynamicSvgNft",
        "label": "s_lowImageURI",
        "offset": 0,
        "slot": "7",
        "type": "t_string_storage"
      },
      {
        "astId": 4124,
        "contract": "contracts/DynamicSvgNft.sol:DynamicSvgNft",
        "label": "s_highImageURI",
        "offset": 0,
        "slot": "8",
        "type": "t_string_storage"
      },
      {
        "astId": 4128,
        "contract": "contracts/DynamicSvgNft.sol:DynamicSvgNft",
        "label": "s_tokenIdToHighValues",
        "offset": 0,
        "slot": "9",
        "type": "t_mapping(t_uint256,t_int256)"
      }
    ],
    "types": {
      "t_address": {
        "encoding": "inplace",
        "label": "address",
        "numberOfBytes": "20"
      },
      "t_bool": {
        "encoding": "inplace",
        "label": "bool",
        "numberOfBytes": "1"
      },
      "t_int256": {
        "encoding": "inplace",
        "label": "int256",
        "numberOfBytes": "32"
      },
      "t_mapping(t_address,t_bool)": {
        "encoding": "mapping",
        "key": "t_address",
        "label": "mapping(address => bool)",
        "numberOfBytes": "32",
        "value": "t_bool"
      },
      "t_mapping(t_address,t_mapping(t_address,t_bool))": {
        "encoding": "mapping",
        "key": "t_address",
        "label": "mapping(address => mapping(address => bool))",
        "numberOfBytes": "32",
        "value": "t_mapping(t_address,t_bool)"
      },
      "t_mapping(t_address,t_uint256)": {
        "encoding": "mapping",
        "key": "t_address",
        "label": "mapping(address => uint256)",
        "numberOfBytes": "32",
        "value": "t_uint256"
      },
      "t_mapping(t_uint256,t_address)": {
        "encoding": "mapping",
        "key": "t_uint256",
        "label": "mapping(uint256 => address)",
        "numberOfBytes": "32",
        "value": "t_address"
      },
      "t_mapping(t_uint256,t_int256)": {
        "encoding": "mapping",
        "key": "t_uint256",
        "label": "mapping(uint256 => int256)",
        "numberOfBytes": "32",
        "value": "t_int256"
      },
      "t_string_storage": {
        "encoding": "bytes",
        "label": "string",
        "numberOfBytes": "32"
      },
      "t_uint256": {
        "encoding": "inplace",
        "label": "uint256",
        "numberOfBytes": "32"
      }
    }
  }
}