{
  "address": "0x55BA10B3055dbef6Aff21e9dA259D4F1Cd8268a0",
  "abi": [
    {
      "inputs": [
        {
          "internalType": "address",
          "name": "vrfCoordinatorV2",
          "type": "address"
        },
        {
          "internalType": "bytes32",
          "name": "gasLane",
          "type": "bytes32"
        },
        {
          "internalType": "uint64",
          "name": "subscriptionId",
          "type": "uint64"
        },
        {
          "internalType": "uint32",
          "name": "callbackGasLimit",
          "type": "uint32"
        },
        {
          "internalType": "string[3]",
          "name": "waifuTokenUris",
          "type": "string[3]"
        },
        {
          "internalType": "uint256",
          "name": "mintFee",
          "type": "uint256"
        }
      ],
      "stateMutability": "nonpayable",
      "type": "constructor"
    },
    {
      "inputs": [
        {
          "internalType": "address",
          "name": "have",
          "type": "address"
        },
        {
          "internalType": "address",
          "name": "want",
          "type": "address"
        }
      ],
      "name": "OnlyCoordinatorCanFulfill",
      "type": "error"
    },
    {
      "inputs": [],
      "name": "RandomIpfsNft__NeedMoreEth",
      "type": "error"
    },
    {
      "inputs": [],
      "name": "RandomIpfsNft__RangeOutOfBounds",
      "type": "error"
    },
    {
      "inputs": [],
      "name": "RandomIpfsNft__TransferFail",
      "type": "error"
    },
    {
      "anonymous": false,
      "inputs": [
        {
          "indexed": true,
          "internalType": "address",
          "name": "owner",
          "type": "address"
        },
        {
          "indexed": true,
          "internalType": "address",
          "name": "approved",
          "type": "address"
        },
        {
          "indexed": true,
          "internalType": "uint256",
          "name": "tokenId",
          "type": "uint256"
        }
      ],
      "name": "Approval",
      "type": "event"
    },
    {
      "anonymous": false,
      "inputs": [
        {
          "indexed": true,
          "internalType": "address",
          "name": "owner",
          "type": "address"
        },
        {
          "indexed": true,
          "internalType": "address",
          "name": "operator",
          "type": "address"
        },
        {
          "indexed": false,
          "internalType": "bool",
          "name": "approved",
          "type": "bool"
        }
      ],
      "name": "ApprovalForAll",
      "type": "event"
    },
    {
      "anonymous": false,
      "inputs": [
        {
          "indexed": true,
          "internalType": "enum RandomIpfsNft.Waifu",
          "name": "waifu",
          "type": "uint8"
        },
        {
          "indexed": false,
          "internalType": "address",
          "name": "Minter",
          "type": "address"
        }
      ],
      "name": "NftMinted",
      "type": "event"
    },
    {
      "anonymous": false,
      "inputs": [
        {
          "indexed": true,
          "internalType": "uint256",
          "name": "requestId",
          "type": "uint256"
        },
        {
          "indexed": false,
          "internalType": "address",
          "name": "requester",
          "type": "address"
        }
      ],
      "name": "NftRequested",
      "type": "event"
    },
    {
      "anonymous": false,
      "inputs": [
        {
          "indexed": true,
          "internalType": "address",
          "name": "previousOwner",
          "type": "address"
        },
        {
          "indexed": true,
          "internalType": "address",
          "name": "newOwner",
          "type": "address"
        }
      ],
      "name": "OwnershipTransferred",
      "type": "event"
    },
    {
      "anonymous": false,
      "inputs": [
        {
          "indexed": true,
          "internalType": "address",
          "name": "from",
          "type": "address"
        },
        {
          "indexed": true,
          "internalType": "address",
          "name": "to",
          "type": "address"
        },
        {
          "indexed": true,
          "internalType": "uint256",
          "name": "tokenId",
          "type": "uint256"
        }
      ],
      "name": "Transfer",
      "type": "event"
    },
    {
      "inputs": [
        {
          "internalType": "address",
          "name": "to",
          "type": "address"
        },
        {
          "internalType": "uint256",
          "name": "tokenId",
          "type": "uint256"
        }
      ],
      "name": "approve",
      "outputs": [],
      "stateMutability": "nonpayable",
      "type": "function"
    },
    {
      "inputs": [
        {
          "internalType": "address",
          "name": "owner",
          "type": "address"
        }
      ],
      "name": "balanceOf",
      "outputs": [
        {
          "internalType": "uint256",
          "name": "",
          "type": "uint256"
        }
      ],
      "stateMutability": "view",
      "type": "function"
    },
    {
      "inputs": [
        {
          "internalType": "uint256",
          "name": "tokenId",
          "type": "uint256"
        }
      ],
      "name": "getApproved",
      "outputs": [
        {
          "internalType": "address",
          "name": "",
          "type": "address"
        }
      ],
      "stateMutability": "view",
      "type": "function"
    },
    {
      "inputs": [],
      "name": "getCallbackGasLimit",
      "outputs": [
        {
          "internalType": "uint32",
          "name": "",
          "type": "uint32"
        }
      ],
      "stateMutability": "view",
      "type": "function"
    },
    {
      "inputs": [],
      "name": "getGasLane",
      "outputs": [
        {
          "internalType": "bytes32",
          "name": "",
          "type": "bytes32"
        }
      ],
      "stateMutability": "view",
      "type": "function"
    },
    {
      "inputs": [],
      "name": "getMaxChanceValue",
      "outputs": [
        {
          "internalType": "uint256",
          "name": "",
          "type": "uint256"
        }
      ],
      "stateMutability": "pure",
      "type": "function"
    },
    {
      "inputs": [],
      "name": "getMintFee",
      "outputs": [
        {
          "internalType": "uint256",
          "name": "",
          "type": "uint256"
        }
      ],
      "stateMutability": "view",
      "type": "function"
    },
    {
      "inputs": [],
      "name": "getNumWords",
      "outputs": [
        {
          "internalType": "uint32",
          "name": "",
          "type": "uint32"
        }
      ],
      "stateMutability": "pure",
      "type": "function"
    },
    {
      "inputs": [],
      "name": "getRequestConfirmations",
      "outputs": [
        {
          "internalType": "uint16",
          "name": "",
          "type": "uint16"
        }
      ],
      "stateMutability": "pure",
      "type": "function"
    },
    {
      "inputs": [
        {
          "internalType": "uint256",
          "name": "index",
          "type": "uint256"
        }
      ],
      "name": "getRequestId",
      "outputs": [
        {
          "internalType": "uint256",
          "name": "",
          "type": "uint256"
        }
      ],
      "stateMutability": "view",
      "type": "function"
    },
    {
      "inputs": [
        {
          "internalType": "uint256",
          "name": "requestId",
          "type": "uint256"
        }
      ],
      "name": "getRequestIdOwner",
      "outputs": [
        {
          "internalType": "address",
          "name": "",
          "type": "address"
        }
      ],
      "stateMutability": "view",
      "type": "function"
    },
    {
      "inputs": [],
      "name": "getSubscriptionId",
      "outputs": [
        {
          "internalType": "uint64",
          "name": "",
          "type": "uint64"
        }
      ],
      "stateMutability": "view",
      "type": "function"
    },
    {
      "inputs": [],
      "name": "getTokenCounter",
      "outputs": [
        {
          "internalType": "uint256",
          "name": "",
          "type": "uint256"
        }
      ],
      "stateMutability": "view",
      "type": "function"
    },
    {
      "inputs": [
        {
          "internalType": "uint256",
          "name": "index",
          "type": "uint256"
        }
      ],
      "name": "getTokenURI",
      "outputs": [
        {
          "internalType": "string",
          "name": "",
          "type": "string"
        }
      ],
      "stateMutability": "view",
      "type": "function"
    },
    {
      "inputs": [
        {
          "internalType": "address",
          "name": "owner",
          "type": "address"
        },
        {
          "internalType": "address",
          "name": "operator",
          "type": "address"
        }
      ],
      "name": "isApprovedForAll",
      "outputs": [
        {
          "internalType": "bool",
          "name": "",
          "type": "bool"
        }
      ],
      "stateMutability": "view",
      "type": "function"
    },
    {
      "inputs": [],
      "name": "name",
      "outputs": [
        {
          "internalType": "string",
          "name": "",
          "type": "string"
        }
      ],
      "stateMutability": "view",
      "type": "function"
    },
    {
      "inputs": [],
      "name": "owner",
      "outputs": [
        {
          "internalType": "address",
          "name": "",
          "type": "address"
        }
      ],
      "stateMutability": "view",
      "type": "function"
    },
    {
      "inputs": [
        {
          "internalType": "uint256",
          "name": "tokenId",
          "type": "uint256"
        }
      ],
      "name": "ownerOf",
      "outputs": [
        {
          "internalType": "address",
          "name": "",
          "type": "address"
        }
      ],
      "stateMutability": "view",
      "type": "function"
    },
    {
      "inputs": [
        {
          "internalType": "uint256",
          "name": "requestId",
          "type": "uint256"
        },
        {
          "internalType": "uint256[]",
          "name": "randomWords",
          "type": "uint256[]"
        }
      ],
      "name": "rawFulfillRandomWords",
      "outputs": [],
      "stateMutability": "nonpayable",
      "type": "function"
    },
    {
      "inputs": [],
      "name": "renounceOwnership",
      "outputs": [],
      "stateMutability": "nonpayable",
      "type": "function"
    },
    {
      "inputs": [
        {
          "internalType": "uint256",
          "name": "",
          "type": "uint256"
        }
      ],
      "name": "requestIdToAddress",
      "outputs": [
        {
          "internalType": "address",
          "name": "",
          "type": "address"
        }
      ],
      "stateMutability": "view",
      "type": "function"
    },
    {
      "inputs": [],
      "name": "requestNft",
      "outputs": [
        {
          "internalType": "uint256",
          "name": "requestId",
          "type": "uint256"
        }
      ],
      "stateMutability": "payable",
      "type": "function"
    },
    {
      "inputs": [
        {
          "internalType": "address",
          "name": "from",
          "type": "address"
        },
        {
          "internalType": "address",
          "name": "to",
          "type": "address"
        },
        {
          "internalType": "uint256",
          "name": "tokenId",
          "type": "uint256"
        }
      ],
      "name": "safeTransferFrom",
      "outputs": [],
      "stateMutability": "nonpayable",
      "type": "function"
    },
    {
      "inputs": [
        {
          "internalType": "address",
          "name": "from",
          "type": "address"
        },
        {
          "internalType": "address",
          "name": "to",
          "type": "address"
        },
        {
          "internalType": "uint256",
          "name": "tokenId",
          "type": "uint256"
        },
        {
          "internalType": "bytes",
          "name": "data",
          "type": "bytes"
        }
      ],
      "name": "safeTransferFrom",
      "outputs": [],
      "stateMutability": "nonpayable",
      "type": "function"
    },
    {
      "inputs": [
        {
          "internalType": "address",
          "name": "operator",
          "type": "address"
        },
        {
          "internalType": "bool",
          "name": "approved",
          "type": "bool"
        }
      ],
      "name": "setApprovalForAll",
      "outputs": [],
      "stateMutability": "nonpayable",
      "type": "function"
    },
    {
      "inputs": [
        {
          "internalType": "bytes4",
          "name": "interfaceId",
          "type": "bytes4"
        }
      ],
      "name": "supportsInterface",
      "outputs": [
        {
          "internalType": "bool",
          "name": "",
          "type": "bool"
        }
      ],
      "stateMutability": "view",
      "type": "function"
    },
    {
      "inputs": [],
      "name": "symbol",
      "outputs": [
        {
          "internalType": "string",
          "name": "",
          "type": "string"
        }
      ],
      "stateMutability": "view",
      "type": "function"
    },
    {
      "inputs": [
        {
          "internalType": "uint256",
          "name": "tokenId",
          "type": "uint256"
        }
      ],
      "name": "tokenURI",
      "outputs": [
        {
          "internalType": "string",
          "name": "",
          "type": "string"
        }
      ],
      "stateMutability": "view",
      "type": "function"
    },
    {
      "inputs": [
        {
          "internalType": "address",
          "name": "from",
          "type": "address"
        },
        {
          "internalType": "address",
          "name": "to",
          "type": "address"
        },
        {
          "internalType": "uint256",
          "name": "tokenId",
          "type": "uint256"
        }
      ],
      "name": "transferFrom",
      "outputs": [],
      "stateMutability": "nonpayable",
      "type": "function"
    },
    {
      "inputs": [
        {
          "internalType": "address",
          "name": "newOwner",
          "type": "address"
        }
      ],
      "name": "transferOwnership",
      "outputs": [],
      "stateMutability": "nonpayable",
      "type": "function"
    },
    {
      "inputs": [],
      "name": "withdraw",
      "outputs": [],
      "stateMutability": "nonpayable",
      "type": "function"
    }
  ],
  "transactionHash": "0x5d41c9ff07ab0d2bf1f9db8497e77bf87ba3482a2404cf271e59a8523c97d584",
  "args": [
    "0x2Ca8E0C643bDe4C2E08ab1fA0da3401AdAD7734D",
    "0x79d3d8832d904592c0bf9818b621522c988bb8b0c05cdc3b15aea1b6e8db0c15",
    "6220",
    "500000",
    [
      "ipfs://QmQK5CT9BTdJxmNCuGuPYhyfZbnyVy65MHpj7bswz2t7YB",
      "ipfs://QmeRStt7HKSUqSUovpWpMLw4VSmCxfMPi5KAzkgLJg9Bsq",
      "ipfs://QmV7C8ADP6GmkkUXjgvpSgUCr4gr5WrBKX8evK5dgXRTgy"
    ],
    "1000000000000000"
  ],
  "numDeployments": 1,
  "solcInputHash": "54bb43b45a451dae957e3bac1960056a",
  "bytecode": "0x61014060405260006008553480156200001757600080fd5b50604051620046ae380380620046ae83398181016040528101906200003d9190620005dc565b6040518060400160405280601581526020017f52616e646f6d2049504653204e465420576169667500000000000000000000008152506040518060400160405280600481526020017f52494e5700000000000000000000000000000000000000000000000000000000815250878073ffffffffffffffffffffffffffffffffffffffff1660808173ffffffffffffffffffffffffffffffffffffffff1660601b81525050508160009080519060200190620000fa929190620002a3565b50806001908051906020019062000113929190620002a3565b505050620001366200012a620001d560201b60201c565b620001dd60201b60201c565b8460a081815250508367ffffffffffffffff1660c08167ffffffffffffffff1660c01b815250508263ffffffff1660e08163ffffffff1660e01b815250508573ffffffffffffffffffffffffffffffffffffffff166101008173ffffffffffffffffffffffffffffffffffffffff1660601b8152505081600b906003620001bf92919062000334565b5080610120818152505050505050505062000937565b600033905090565b6000600760009054906101000a900473ffffffffffffffffffffffffffffffffffffffff16905081600760006101000a81548173ffffffffffffffffffffffffffffffffffffffff021916908373ffffffffffffffffffffffffffffffffffffffff1602179055508173ffffffffffffffffffffffffffffffffffffffff168173ffffffffffffffffffffffffffffffffffffffff167f8be0079c531659141344cd1fd0a4f28419497f9722a3daafe3b4186f6b6457e060405160405180910390a35050565b828054620002b190620007c1565b90600052602060002090601f016020900481019282620002d5576000855562000321565b82601f10620002f057805160ff191683800117855562000321565b8280016001018555821562000321579182015b828111156200032057825182559160200191906001019062000303565b5b5090506200033091906200039b565b5090565b82805482825590600052602060002090810192821562000388579160200282015b828111156200038757825182908051906020019062000376929190620002a3565b509160200191906001019062000355565b5b509050620003979190620003ba565b5090565b5b80821115620003b65760008160009055506001016200039c565b5090565b5b80821115620003de5760008181620003d49190620003e2565b50600101620003bb565b5090565b508054620003f090620007c1565b6000825580601f1062000404575062000425565b601f0160209004906000526020600020908101906200042491906200039b565b5b50565b60006200043f6200043984620006c0565b62000697565b905080828560208602820111156200045c576200045b62000890565b5b60005b85811015620004b157815167ffffffffffffffff8111156200048657620004856200088b565b5b80860162000495898262000564565b855260208501945060208401935050506001810190506200045f565b5050509392505050565b6000620004d2620004cc84620006e9565b62000697565b905082815260208101848484011115620004f157620004f062000895565b5b620004fe8482856200078b565b509392505050565b6000815190506200051781620008b5565b92915050565b600082601f8301126200053557620005346200088b565b5b60036200054484828562000428565b91505092915050565b6000815190506200055e81620008cf565b92915050565b600082601f8301126200057c576200057b6200088b565b5b81516200058e848260208601620004bb565b91505092915050565b600081519050620005a881620008e9565b92915050565b600081519050620005bf8162000903565b92915050565b600081519050620005d6816200091d565b92915050565b60008060008060008060c08789031215620005fc57620005fb6200089f565b5b60006200060c89828a0162000506565b96505060206200061f89828a016200054d565b95505060406200063289828a01620005c5565b94505060606200064589828a01620005ae565b935050608087015167ffffffffffffffff8111156200066957620006686200089a565b5b6200067789828a016200051d565b92505060a06200068a89828a0162000597565b9150509295509295509295565b6000620006a3620006b6565b9050620006b18282620007f7565b919050565b6000604051905090565b600067ffffffffffffffff821115620006de57620006dd6200085c565b5b602082029050919050565b600067ffffffffffffffff8211156200070757620007066200085c565b5b6200071282620008a4565b9050602081019050919050565b60006200072c826200073d565b9050919050565b6000819050919050565b600073ffffffffffffffffffffffffffffffffffffffff82169050919050565b6000819050919050565b600063ffffffff82169050919050565b600067ffffffffffffffff82169050919050565b60005b83811015620007ab5780820151818401526020810190506200078e565b83811115620007bb576000848401525b50505050565b60006002820490506001821680620007da57607f821691505b60208210811415620007f157620007f06200082d565b5b50919050565b6200080282620008a4565b810181811067ffffffffffffffff821117156200082457620008236200085c565b5b80604052505050565b7f4e487b7100000000000000000000000000000000000000000000000000000000600052602260045260246000fd5b7f4e487b7100000000000000000000000000000000000000000000000000000000600052604160045260246000fd5b600080fd5b600080fd5b600080fd5b600080fd5b600080fd5b6000601f19601f8301169050919050565b620008c0816200071f565b8114620008cc57600080fd5b50565b620008da8162000733565b8114620008e657600080fd5b50565b620008f4816200075d565b81146200090057600080fd5b50565b6200090e8162000767565b81146200091a57600080fd5b50565b620009288162000777565b81146200093457600080fd5b50565b60805160601c60a05160c05160c01c60e05160e01c6101005160601c61012051613cf8620009b660003960008181610ec70152610fc10152600061101b01526000818161109b01526113f501526000818161107801526113cd015260008181611057015261124c015260008181610a570152610aab0152613cf86000f3fe6080604052600436106101d85760003560e01c806370a0823111610102578063c19dd76b11610095578063de3d9fb711610064578063de3d9fb7146106c7578063de8be8e7146106f2578063e985e9c51461071d578063f2fde38b1461075a576101d8565b8063c19dd76b146105f7578063c245999c14610622578063c87b56dd1461064d578063cf3d10761461068a576101d8565b806395d89b41116100d157806395d89b411461055c578063a22cb46514610587578063aa152491146105b0578063b88d4fde146105ce576101d8565b806370a08231146104b2578063715018a6146104ef5780637a5caab3146105065780638da5cb5b14610531576101d8565b80633ccfd60b1161017a5780636352211e116101495780636352211e146103d0578063637c43201461040d57806368814af81461044a5780636e02007d14610487576101d8565b80633ccfd60b1461033a57806342842e0e1461035157806353a2c19a1461037a5780635f1b0fd8146103a5576101d8565b8063095ea7b3116101b6578063095ea7b3146102825780631fe543e3146102ab57806323b872dd146102d45780633bb3a24d146102fd576101d8565b806301ffc9a7146101dd57806306fdde031461021a578063081812fc14610245575b600080fd5b3480156101e957600080fd5b5061020460048036038101906101ff9190612c99565b610783565b604051610211919061318b565b60405180910390f35b34801561022657600080fd5b5061022f610865565b60405161023c9190613214565b60405180910390f35b34801561025157600080fd5b5061026c60048036038101906102679190612cf3565b6108f7565b60405161027991906130fb565b60405180910390f35b34801561028e57600080fd5b506102a960048036038101906102a49190612c59565b61093d565b005b3480156102b757600080fd5b506102d260048036038101906102cd9190612d4d565b610a55565b005b3480156102e057600080fd5b506102fb60048036038101906102f69190612b43565b610b15565b005b34801561030957600080fd5b50610324600480360381019061031f9190612cf3565b610b75565b6040516103319190613214565b60405180910390f35b34801561034657600080fd5b5061034f610c25565b005b34801561035d57600080fd5b5061037860048036038101906103739190612b43565b610cd9565b005b34801561038657600080fd5b5061038f610cf9565b60405161039c919061342c565b60405180910390f35b3480156103b157600080fd5b506103ba610d02565b6040516103c791906133f6565b60405180910390f35b3480156103dc57600080fd5b506103f760048036038101906103f29190612cf3565b610d0b565b60405161040491906130fb565b60405180910390f35b34801561041957600080fd5b50610434600480360381019061042f9190612cf3565b610d92565b60405161044191906130fb565b60405180910390f35b34801561045657600080fd5b50610471600480360381019061046c9190612cf3565b610dc5565b60405161047e9190613411565b60405180910390f35b34801561049357600080fd5b5061049c610ded565b6040516104a99190613411565b60405180910390f35b3480156104be57600080fd5b506104d960048036038101906104d49190612ad6565b610df7565b6040516104e69190613411565b60405180910390f35b3480156104fb57600080fd5b50610504610eaf565b005b34801561051257600080fd5b5061051b610ec3565b6040516105289190613411565b60405180910390f35b34801561053d57600080fd5b50610546610eeb565b60405161055391906130fb565b60405180910390f35b34801561056857600080fd5b50610571610f15565b60405161057e9190613214565b60405180910390f35b34801561059357600080fd5b506105ae60048036038101906105a99190612c19565b610fa7565b005b6105b8610fbd565b6040516105c59190613411565b60405180910390f35b3480156105da57600080fd5b506105f560048036038101906105f09190612b96565b6111e6565b005b34801561060357600080fd5b5061060c611248565b60405161061991906131a6565b60405180910390f35b34801561062e57600080fd5b50610637611270565b6040516106449190613411565b60405180910390f35b34801561065957600080fd5b50610674600480360381019061066f9190612cf3565b611279565b6040516106819190613214565b60405180910390f35b34801561069657600080fd5b506106b160048036038101906106ac9190612cf3565b61138c565b6040516106be91906130fb565b60405180910390f35b3480156106d357600080fd5b506106dc6113c9565b6040516106e99190613447565b60405180910390f35b3480156106fe57600080fd5b506107076113f1565b604051610714919061342c565b60405180910390f35b34801561072957600080fd5b50610744600480360381019061073f9190612b03565b611419565b604051610751919061318b565b60405180910390f35b34801561076657600080fd5b50610781600480360381019061077c9190612ad6565b6114ad565b005b60007f80ac58cd000000000000000000000000000000000000000000000000000000007bffffffffffffffffffffffffffffffffffffffffffffffffffffffff1916827bffffffffffffffffffffffffffffffffffffffffffffffffffffffff1916148061084e57507f5b5e139f000000000000000000000000000000000000000000000000000000007bffffffffffffffffffffffffffffffffffffffffffffffffffffffff1916827bffffffffffffffffffffffffffffffffffffffffffffffffffffffff1916145b8061085e575061085d82611531565b5b9050919050565b606060008054610874906136ae565b80601f01602080910402602001604051908101604052809291908181526020018280546108a0906136ae565b80156108ed5780601f106108c2576101008083540402835291602001916108ed565b820191906000526020600020905b8154815290600101906020018083116108d057829003601f168201915b5050505050905090565b60006109028261159b565b6004600083815260200190815260200160002060009054906101000a900473ffffffffffffffffffffffffffffffffffffffff169050919050565b600061094882610d0b565b90508073ffffffffffffffffffffffffffffffffffffffff168373ffffffffffffffffffffffffffffffffffffffff1614156109b9576040517f08c379a00000000000000000000000000000000000000000000000000000000081526004016109b0906133b6565b60405180910390fd5b8073ffffffffffffffffffffffffffffffffffffffff166109d86115e6565b73ffffffffffffffffffffffffffffffffffffffff161480610a075750610a0681610a016115e6565b611419565b5b610a46576040517f08c379a0000000000000000000000000000000000000000000000000000000008152600401610a3d906133d6565b60405180910390fd5b610a5083836115ee565b505050565b7f000000000000000000000000000000000000000000000000000000000000000073ffffffffffffffffffffffffffffffffffffffff163373ffffffffffffffffffffffffffffffffffffffff1614610b0757337f00000000000000000000000000000000000000000000000000000000000000006040517f1cf993f4000000000000000000000000000000000000000000000000000000008152600401610afe929190613116565b60405180910390fd5b610b1182826116a7565b5050565b610b26610b206115e6565b82611851565b610b65576040517f08c379a0000000000000000000000000000000000000000000000000000000008152600401610b5c90613236565b60405180910390fd5b610b708383836118e6565b505050565b6060600b8281548110610b8b57610b8a613847565b5b906000526020600020018054610ba0906136ae565b80601f0160208091040260200160405190810160405280929190818152602001828054610bcc906136ae565b8015610c195780601f10610bee57610100808354040283529160200191610c19565b820191906000526020600020905b815481529060010190602001808311610bfc57829003601f168201915b50505050509050919050565b610c2d611be0565b600047905060003373ffffffffffffffffffffffffffffffffffffffff1682604051610c58906130e6565b60006040518083038185875af1925050503d8060008114610c95576040519150601f19603f3d011682016040523d82523d6000602084013e610c9a565b606091505b5050905080610cd5576040517fffaa940200000000000000000000000000000000000000000000000000000000815260040160405180910390fd5b5050565b610cf4838383604051806020016040528060008152506111e6565b505050565b60006002905090565b60006003905090565b600080610d1783611c5e565b9050600073ffffffffffffffffffffffffffffffffffffffff168173ffffffffffffffffffffffffffffffffffffffff161415610d89576040517f08c379a0000000000000000000000000000000000000000000000000000000008152600401610d8090613396565b60405180910390fd5b80915050919050565b60096020528060005260406000206000915054906101000a900473ffffffffffffffffffffffffffffffffffffffff1681565b6000600a8281548110610ddb57610dda613847565b5b90600052602060002001549050919050565b6000600854905090565b60008073ffffffffffffffffffffffffffffffffffffffff168273ffffffffffffffffffffffffffffffffffffffff161415610e68576040517f08c379a0000000000000000000000000000000000000000000000000000000008152600401610e5f90613316565b60405180910390fd5b600360008373ffffffffffffffffffffffffffffffffffffffff1673ffffffffffffffffffffffffffffffffffffffff168152602001908152602001600020549050919050565b610eb7611be0565b610ec16000611c9b565b565b60007f0000000000000000000000000000000000000000000000000000000000000000905090565b6000600760009054906101000a900473ffffffffffffffffffffffffffffffffffffffff16905090565b606060018054610f24906136ae565b80601f0160208091040260200160405190810160405280929190818152602001828054610f50906136ae565b8015610f9d5780601f10610f7257610100808354040283529160200191610f9d565b820191906000526020600020905b815481529060010190602001808311610f8057829003601f168201915b5050505050905090565b610fb9610fb26115e6565b8383611d61565b5050565b60007f0000000000000000000000000000000000000000000000000000000000000000341015611019576040517fbd9aefd500000000000000000000000000000000000000000000000000000000815260040160405180910390fd5b7f000000000000000000000000000000000000000000000000000000000000000073ffffffffffffffffffffffffffffffffffffffff16635d3b1d307f00000000000000000000000000000000000000000000000000000000000000007f000000000000000000000000000000000000000000000000000000000000000060037f000000000000000000000000000000000000000000000000000000000000000060026040518663ffffffff1660e01b81526004016110dc9594939291906131c1565b602060405180830381600087803b1580156110f657600080fd5b505af115801561110a573d6000803e3d6000fd5b505050506040513d601f19601f8201168201806040525081019061112e9190612d20565b9050336009600083815260200190815260200160002060006101000a81548173ffffffffffffffffffffffffffffffffffffffff021916908373ffffffffffffffffffffffffffffffffffffffff160217905550600a819080600181540180825580915050600190039060005260206000200160009091909190915055807ff873236e6cc0ecc5be1a9a35c95ee5b8d1ac4cc7bfef0cc5060391d6cc98e26b336040516111db91906130fb565b60405180910390a290565b6111f76111f16115e6565b83611851565b611236576040517f08c379a000000000000000000000000000000000000000000000000000000000815260040161122d90613236565b60405180910390fd5b61124284848484611ece565b50505050565b60007f0000000000000000000000000000000000000000000000000000000000000000905090565b60006064905090565b60606112848261159b565b60006006600084815260200190815260200160002080546112a4906136ae565b80601f01602080910402602001604051908101604052809291908181526020018280546112d0906136ae565b801561131d5780601f106112f25761010080835404028352916020019161131d565b820191906000526020600020905b81548152906001019060200180831161130057829003601f168201915b50505050509050600061132e611f2a565b9050600081511415611344578192505050611387565b6000825111156113795780826040516020016113619291906130c2565b60405160208183030381529060405292505050611387565b61138284611f41565b925050505b919050565b60006009600083815260200190815260200160002060009054906101000a900473ffffffffffffffffffffffffffffffffffffffff169050919050565b60007f0000000000000000000000000000000000000000000000000000000000000000905090565b60007f0000000000000000000000000000000000000000000000000000000000000000905090565b6000600560008473ffffffffffffffffffffffffffffffffffffffff1673ffffffffffffffffffffffffffffffffffffffff16815260200190815260200160002060008373ffffffffffffffffffffffffffffffffffffffff1673ffffffffffffffffffffffffffffffffffffffff16815260200190815260200160002060009054906101000a900460ff16905092915050565b6114b5611be0565b600073ffffffffffffffffffffffffffffffffffffffff168173ffffffffffffffffffffffffffffffffffffffff161415611525576040517f08c379a000000000000000000000000000000000000000000000000000000000815260040161151c90613276565b60405180910390fd5b61152e81611c9b565b50565b60007f01ffc9a7000000000000000000000000000000000000000000000000000000007bffffffffffffffffffffffffffffffffffffffffffffffffffffffff1916827bffffffffffffffffffffffffffffffffffffffffffffffffffffffff1916149050919050565b6115a481611fa9565b6115e3576040517f08c379a00000000000000000000000000000000000000000000000000000000081526004016115da90613396565b60405180910390fd5b50565b600033905090565b816004600083815260200190815260200160002060006101000a81548173ffffffffffffffffffffffffffffffffffffffff021916908373ffffffffffffffffffffffffffffffffffffffff160217905550808273ffffffffffffffffffffffffffffffffffffffff1661166183610d0b565b73ffffffffffffffffffffffffffffffffffffffff167f8c5be1e5ebec7d5bd14f71427d1e84f3dd0314c0f7b2291e5b200ac8c7c3b92560405160405180910390a45050565b60006009600084815260200190815260200160002060009054906101000a900473ffffffffffffffffffffffffffffffffffffffff16905060006064836000815181106116f7576116f6613847565b5b6020026020010151611709919061375a565b9050600061171682611fea565b90506117248360085461208b565b6117e8600854600b83600281111561173f5761173e6137e9565b5b815481106117505761174f613847565b5b906000526020600020018054611765906136ae565b80601f0160208091040260200160405190810160405280929190818152602001828054611791906136ae565b80156117de5780601f106117b3576101008083540402835291602001916117de565b820191906000526020600020905b8154815290600101906020018083116117c157829003601f168201915b50505050506120a9565b600860008154809291906117fb90613711565b9190505550806002811115611813576118126137e9565b5b7f8a269f26b688e110e9cbd887d163dab35cae678fa353a0292de532c0cac1ecdc8460405161184291906130fb565b60405180910390a25050505050565b60008061185d83610d0b565b90508073ffffffffffffffffffffffffffffffffffffffff168473ffffffffffffffffffffffffffffffffffffffff16148061189f575061189e8185611419565b5b806118dd57508373ffffffffffffffffffffffffffffffffffffffff166118c5846108f7565b73ffffffffffffffffffffffffffffffffffffffff16145b91505092915050565b8273ffffffffffffffffffffffffffffffffffffffff1661190682610d0b565b73ffffffffffffffffffffffffffffffffffffffff161461195c576040517f08c379a000000000000000000000000000000000000000000000000000000000815260040161195390613296565b60405180910390fd5b600073ffffffffffffffffffffffffffffffffffffffff168273ffffffffffffffffffffffffffffffffffffffff1614156119cc576040517f08c379a00000000000000000000000000000000000000000000000000000000081526004016119c3906132d6565b60405180910390fd5b6119d9838383600161211d565b8273ffffffffffffffffffffffffffffffffffffffff166119f982610d0b565b73ffffffffffffffffffffffffffffffffffffffff1614611a4f576040517f08c379a0000000000000000000000000000000000000000000000000000000008152600401611a4690613296565b60405180910390fd5b6004600082815260200190815260200160002060006101000a81549073ffffffffffffffffffffffffffffffffffffffff02191690556001600360008573ffffffffffffffffffffffffffffffffffffffff1673ffffffffffffffffffffffffffffffffffffffff168152602001908152602001600020600082825403925050819055506001600360008473ffffffffffffffffffffffffffffffffffffffff1673ffffffffffffffffffffffffffffffffffffffff16815260200190815260200160002060008282540192505081905550816002600083815260200190815260200160002060006101000a81548173ffffffffffffffffffffffffffffffffffffffff021916908373ffffffffffffffffffffffffffffffffffffffff160217905550808273ffffffffffffffffffffffffffffffffffffffff168473ffffffffffffffffffffffffffffffffffffffff167fddf252ad1be2c89b69c2b068fc378daa952ba7f163c4a11628f55a4df523b3ef60405160405180910390a4611bdb8383836001612243565b505050565b611be86115e6565b73ffffffffffffffffffffffffffffffffffffffff16611c06610eeb565b73ffffffffffffffffffffffffffffffffffffffff1614611c5c576040517f08c379a0000000000000000000000000000000000000000000000000000000008152600401611c5390613376565b60405180910390fd5b565b60006002600083815260200190815260200160002060009054906101000a900473ffffffffffffffffffffffffffffffffffffffff169050919050565b6000600760009054906101000a900473ffffffffffffffffffffffffffffffffffffffff16905081600760006101000a81548173ffffffffffffffffffffffffffffffffffffffff021916908373ffffffffffffffffffffffffffffffffffffffff1602179055508173ffffffffffffffffffffffffffffffffffffffff168173ffffffffffffffffffffffffffffffffffffffff167f8be0079c531659141344cd1fd0a4f28419497f9722a3daafe3b4186f6b6457e060405160405180910390a35050565b8173ffffffffffffffffffffffffffffffffffffffff168373ffffffffffffffffffffffffffffffffffffffff161415611dd0576040517f08c379a0000000000000000000000000000000000000000000000000000000008152600401611dc7906132f6565b60405180910390fd5b80600560008573ffffffffffffffffffffffffffffffffffffffff1673ffffffffffffffffffffffffffffffffffffffff16815260200190815260200160002060008473ffffffffffffffffffffffffffffffffffffffff1673ffffffffffffffffffffffffffffffffffffffff16815260200190815260200160002060006101000a81548160ff0219169083151502179055508173ffffffffffffffffffffffffffffffffffffffff168373ffffffffffffffffffffffffffffffffffffffff167f17307eab39ab6107e8899845ad3d59bd9653f200f220920489ca2b5937696c3183604051611ec1919061318b565b60405180910390a3505050565b611ed98484846118e6565b611ee584848484612249565b611f24576040517f08c379a0000000000000000000000000000000000000000000000000000000008152600401611f1b90613256565b60405180910390fd5b50505050565b606060405180602001604052806000815250905090565b6060611f4c8261159b565b6000611f56611f2a565b90506000815111611f765760405180602001604052806000815250611fa1565b80611f80846123e0565b604051602001611f919291906130c2565b6040516020818303038152906040525b915050919050565b60008073ffffffffffffffffffffffffffffffffffffffff16611fcb83611c5e565b73ffffffffffffffffffffffffffffffffffffffff1614159050919050565b6000600a821161200f5760006002811115612008576120076137e9565b5b9050612086565b601e8211612032576001600281111561202b5761202a6137e9565b5b9050612086565b606482116120545760028081111561204d5761204c6137e9565b5b9050612086565b6040517f12806c9d00000000000000000000000000000000000000000000000000000000815260040160405180910390fd5b919050565b6120a58282604051806020016040528060008152506124b8565b5050565b6120b282611fa9565b6120f1576040517f08c379a00000000000000000000000000000000000000000000000000000000081526004016120e890613336565b60405180910390fd5b806006600084815260200190815260200160002090805190602001906121189291906128a7565b505050565b600181111561223d57600073ffffffffffffffffffffffffffffffffffffffff168473ffffffffffffffffffffffffffffffffffffffff16146121b15780600360008673ffffffffffffffffffffffffffffffffffffffff1673ffffffffffffffffffffffffffffffffffffffff16815260200190815260200160002060008282546121a99190613588565b925050819055505b600073ffffffffffffffffffffffffffffffffffffffff168373ffffffffffffffffffffffffffffffffffffffff161461223c5780600360008573ffffffffffffffffffffffffffffffffffffffff1673ffffffffffffffffffffffffffffffffffffffff16815260200190815260200160002060008282546122349190613532565b925050819055505b5b50505050565b50505050565b600061226a8473ffffffffffffffffffffffffffffffffffffffff16612513565b156123d3578373ffffffffffffffffffffffffffffffffffffffff1663150b7a026122936115e6565b8786866040518563ffffffff1660e01b81526004016122b5949392919061313f565b602060405180830381600087803b1580156122cf57600080fd5b505af192505050801561230057506040513d601f19601f820116820180604052508101906122fd9190612cc6565b60015b612383573d8060008114612330576040519150601f19603f3d011682016040523d82523d6000602084013e612335565b606091505b5060008151141561237b576040517f08c379a000000000000000000000000000000000000000000000000000000000815260040161237290613256565b60405180910390fd5b805181602001fd5b63150b7a0260e01b7bffffffffffffffffffffffffffffffffffffffffffffffffffffffff1916817bffffffffffffffffffffffffffffffffffffffffffffffffffffffff1916149150506123d8565b600190505b949350505050565b6060600060016123ef84612536565b01905060008167ffffffffffffffff81111561240e5761240d613876565b5b6040519080825280601f01601f1916602001820160405280156124405781602001600182028036833780820191505090505b509050600082602001820190505b6001156124ad578080600190039150507f3031323334353637383961626364656600000000000000000000000000000000600a86061a8153600a8581612497576124966137ba565b5b04945060008514156124a8576124ad565b61244e565b819350505050919050565b6124c28383612689565b6124cf6000848484612249565b61250e576040517f08c379a000000000000000000000000000000000000000000000000000000000815260040161250590613256565b60405180910390fd5b505050565b6000808273ffffffffffffffffffffffffffffffffffffffff163b119050919050565b600080600090507a184f03e93ff9f4daa797ed6e38ed64bf6a1f0100000000000000008310612594577a184f03e93ff9f4daa797ed6e38ed64bf6a1f010000000000000000838161258a576125896137ba565b5b0492506040810190505b6d04ee2d6d415b85acef810000000083106125d1576d04ee2d6d415b85acef810000000083816125c7576125c66137ba565b5b0492506020810190505b662386f26fc10000831061260057662386f26fc1000083816125f6576125f56137ba565b5b0492506010810190505b6305f5e1008310612629576305f5e100838161261f5761261e6137ba565b5b0492506008810190505b612710831061264e576127108381612644576126436137ba565b5b0492506004810190505b606483106126715760648381612667576126666137ba565b5b0492506002810190505b600a8310612680576001810190505b80915050919050565b600073ffffffffffffffffffffffffffffffffffffffff168273ffffffffffffffffffffffffffffffffffffffff1614156126f9576040517f08c379a00000000000000000000000000000000000000000000000000000000081526004016126f090613356565b60405180910390fd5b61270281611fa9565b15612742576040517f08c379a0000000000000000000000000000000000000000000000000000000008152600401612739906132b6565b60405180910390fd5b61275060008383600161211d565b61275981611fa9565b15612799576040517f08c379a0000000000000000000000000000000000000000000000000000000008152600401612790906132b6565b60405180910390fd5b6001600360008473ffffffffffffffffffffffffffffffffffffffff1673ffffffffffffffffffffffffffffffffffffffff16815260200190815260200160002060008282540192505081905550816002600083815260200190815260200160002060006101000a81548173ffffffffffffffffffffffffffffffffffffffff021916908373ffffffffffffffffffffffffffffffffffffffff160217905550808273ffffffffffffffffffffffffffffffffffffffff16600073ffffffffffffffffffffffffffffffffffffffff167fddf252ad1be2c89b69c2b068fc378daa952ba7f163c4a11628f55a4df523b3ef60405160405180910390a46128a3600083836001612243565b5050565b8280546128b3906136ae565b90600052602060002090601f0160209004810192826128d5576000855561291c565b82601f106128ee57805160ff191683800117855561291c565b8280016001018555821561291c579182015b8281111561291b578251825591602001919060010190612900565b5b509050612929919061292d565b5090565b5b8082111561294657600081600090555060010161292e565b5090565b600061295d61295884613487565b613462565b905080838252602082019050828560208602820111156129805761297f6138aa565b5b60005b858110156129b057816129968882612aac565b845260208401935060208301925050600181019050612983565b5050509392505050565b60006129cd6129c8846134b3565b613462565b9050828152602081018484840111156129e9576129e86138af565b5b6129f484828561366c565b509392505050565b600081359050612a0b81613c66565b92915050565b600082601f830112612a2657612a256138a5565b5b8135612a3684826020860161294a565b91505092915050565b600081359050612a4e81613c7d565b92915050565b600081359050612a6381613c94565b92915050565b600081519050612a7881613c94565b92915050565b600082601f830112612a9357612a926138a5565b5b8135612aa38482602086016129ba565b91505092915050565b600081359050612abb81613cab565b92915050565b600081519050612ad081613cab565b92915050565b600060208284031215612aec57612aeb6138b9565b5b6000612afa848285016129fc565b91505092915050565b60008060408385031215612b1a57612b196138b9565b5b6000612b28858286016129fc565b9250506020612b39858286016129fc565b9150509250929050565b600080600060608486031215612b5c57612b5b6138b9565b5b6000612b6a868287016129fc565b9350506020612b7b868287016129fc565b9250506040612b8c86828701612aac565b9150509250925092565b60008060008060808587031215612bb057612baf6138b9565b5b6000612bbe878288016129fc565b9450506020612bcf878288016129fc565b9350506040612be087828801612aac565b925050606085013567ffffffffffffffff811115612c0157612c006138b4565b5b612c0d87828801612a7e565b91505092959194509250565b60008060408385031215612c3057612c2f6138b9565b5b6000612c3e858286016129fc565b9250506020612c4f85828601612a3f565b9150509250929050565b60008060408385031215612c7057612c6f6138b9565b5b6000612c7e858286016129fc565b9250506020612c8f85828601612aac565b9150509250929050565b600060208284031215612caf57612cae6138b9565b5b6000612cbd84828501612a54565b91505092915050565b600060208284031215612cdc57612cdb6138b9565b5b6000612cea84828501612a69565b91505092915050565b600060208284031215612d0957612d086138b9565b5b6000612d1784828501612aac565b91505092915050565b600060208284031215612d3657612d356138b9565b5b6000612d4484828501612ac1565b91505092915050565b60008060408385031215612d6457612d636138b9565b5b6000612d7285828601612aac565b925050602083013567ffffffffffffffff811115612d9357612d926138b4565b5b612d9f85828601612a11565b9150509250929050565b612db2816135bc565b82525050565b612dc1816135ce565b82525050565b612dd0816135da565b82525050565b6000612de1826134e4565b612deb81856134fa565b9350612dfb81856020860161367b565b612e04816138be565b840191505092915050565b6000612e1a826134ef565b612e248185613516565b9350612e3481856020860161367b565b612e3d816138be565b840191505092915050565b6000612e53826134ef565b612e5d8185613527565b9350612e6d81856020860161367b565b80840191505092915050565b6000612e86602d83613516565b9150612e91826138cf565b604082019050919050565b6000612ea9603283613516565b9150612eb48261391e565b604082019050919050565b6000612ecc602683613516565b9150612ed78261396d565b604082019050919050565b6000612eef602583613516565b9150612efa826139bc565b604082019050919050565b6000612f12601c83613516565b9150612f1d82613a0b565b602082019050919050565b6000612f35602483613516565b9150612f4082613a34565b604082019050919050565b6000612f58601983613516565b9150612f6382613a83565b602082019050919050565b6000612f7b602983613516565b9150612f8682613aac565b604082019050919050565b6000612f9e602e83613516565b9150612fa982613afb565b604082019050919050565b6000612fc1602083613516565b9150612fcc82613b4a565b602082019050919050565b6000612fe4602083613516565b9150612fef82613b73565b602082019050919050565b6000613007601883613516565b915061301282613b9c565b602082019050919050565b600061302a602183613516565b915061303582613bc5565b604082019050919050565b600061304d60008361350b565b915061305882613c14565b600082019050919050565b6000613070603d83613516565b915061307b82613c17565b604082019050919050565b61308f81613610565b82525050565b61309e8161363e565b82525050565b6130ad81613648565b82525050565b6130bc81613658565b82525050565b60006130ce8285612e48565b91506130da8284612e48565b91508190509392505050565b60006130f182613040565b9150819050919050565b60006020820190506131106000830184612da9565b92915050565b600060408201905061312b6000830185612da9565b6131386020830184612da9565b9392505050565b60006080820190506131546000830187612da9565b6131616020830186612da9565b61316e6040830185613095565b81810360608301526131808184612dd6565b905095945050505050565b60006020820190506131a06000830184612db8565b92915050565b60006020820190506131bb6000830184612dc7565b92915050565b600060a0820190506131d66000830188612dc7565b6131e360208301876130b3565b6131f06040830186613086565b6131fd60608301856130a4565b61320a60808301846130a4565b9695505050505050565b6000602082019050818103600083015261322e8184612e0f565b905092915050565b6000602082019050818103600083015261324f81612e79565b9050919050565b6000602082019050818103600083015261326f81612e9c565b9050919050565b6000602082019050818103600083015261328f81612ebf565b9050919050565b600060208201905081810360008301526132af81612ee2565b9050919050565b600060208201905081810360008301526132cf81612f05565b9050919050565b600060208201905081810360008301526132ef81612f28565b9050919050565b6000602082019050818103600083015261330f81612f4b565b9050919050565b6000602082019050818103600083015261332f81612f6e565b9050919050565b6000602082019050818103600083015261334f81612f91565b9050919050565b6000602082019050818103600083015261336f81612fb4565b9050919050565b6000602082019050818103600083015261338f81612fd7565b9050919050565b600060208201905081810360008301526133af81612ffa565b9050919050565b600060208201905081810360008301526133cf8161301d565b9050919050565b600060208201905081810360008301526133ef81613063565b9050919050565b600060208201905061340b6000830184613086565b92915050565b60006020820190506134266000830184613095565b92915050565b600060208201905061344160008301846130a4565b92915050565b600060208201905061345c60008301846130b3565b92915050565b600061346c61347d565b905061347882826136e0565b919050565b6000604051905090565b600067ffffffffffffffff8211156134a2576134a1613876565b5b602082029050602081019050919050565b600067ffffffffffffffff8211156134ce576134cd613876565b5b6134d7826138be565b9050602081019050919050565b600081519050919050565b600081519050919050565b600082825260208201905092915050565b600081905092915050565b600082825260208201905092915050565b600081905092915050565b600061353d8261363e565b91506135488361363e565b9250827fffffffffffffffffffffffffffffffffffffffffffffffffffffffffffffffff0382111561357d5761357c61378b565b5b828201905092915050565b60006135938261363e565b915061359e8361363e565b9250828210156135b1576135b061378b565b5b828203905092915050565b60006135c78261361e565b9050919050565b60008115159050919050565b6000819050919050565b60007fffffffff0000000000000000000000000000000000000000000000000000000082169050919050565b600061ffff82169050919050565b600073ffffffffffffffffffffffffffffffffffffffff82169050919050565b6000819050919050565b600063ffffffff82169050919050565b600067ffffffffffffffff82169050919050565b82818337600083830152505050565b60005b8381101561369957808201518184015260208101905061367e565b838111156136a8576000848401525b50505050565b600060028204905060018216806136c657607f821691505b602082108114156136da576136d9613818565b5b50919050565b6136e9826138be565b810181811067ffffffffffffffff8211171561370857613707613876565b5b80604052505050565b600061371c8261363e565b91507fffffffffffffffffffffffffffffffffffffffffffffffffffffffffffffffff82141561374f5761374e61378b565b5b600182019050919050565b60006137658261363e565b91506137708361363e565b9250826137805761377f6137ba565b5b828206905092915050565b7f4e487b7100000000000000000000000000000000000000000000000000000000600052601160045260246000fd5b7f4e487b7100000000000000000000000000000000000000000000000000000000600052601260045260246000fd5b7f4e487b7100000000000000000000000000000000000000000000000000000000600052602160045260246000fd5b7f4e487b7100000000000000000000000000000000000000000000000000000000600052602260045260246000fd5b7f4e487b7100000000000000000000000000000000000000000000000000000000600052603260045260246000fd5b7f4e487b7100000000000000000000000000000000000000000000000000000000600052604160045260246000fd5b600080fd5b600080fd5b600080fd5b600080fd5b600080fd5b6000601f19601f8301169050919050565b7f4552433732313a2063616c6c6572206973206e6f7420746f6b656e206f776e6560008201527f72206f7220617070726f76656400000000000000000000000000000000000000602082015250565b7f4552433732313a207472616e7366657220746f206e6f6e20455243373231526560008201527f63656976657220696d706c656d656e7465720000000000000000000000000000602082015250565b7f4f776e61626c653a206e6577206f776e657220697320746865207a65726f206160008201527f6464726573730000000000000000000000000000000000000000000000000000602082015250565b7f4552433732313a207472616e736665722066726f6d20696e636f72726563742060008201527f6f776e6572000000000000000000000000000000000000000000000000000000602082015250565b7f4552433732313a20746f6b656e20616c7265616479206d696e74656400000000600082015250565b7f4552433732313a207472616e7366657220746f20746865207a65726f2061646460008201527f7265737300000000000000000000000000000000000000000000000000000000602082015250565b7f4552433732313a20617070726f766520746f2063616c6c657200000000000000600082015250565b7f4552433732313a2061646472657373207a65726f206973206e6f74206120766160008201527f6c6964206f776e65720000000000000000000000000000000000000000000000602082015250565b7f45524337323155524953746f726167653a2055524920736574206f66206e6f6e60008201527f6578697374656e7420746f6b656e000000000000000000000000000000000000602082015250565b7f4552433732313a206d696e7420746f20746865207a65726f2061646472657373600082015250565b7f4f776e61626c653a2063616c6c6572206973206e6f7420746865206f776e6572600082015250565b7f4552433732313a20696e76616c696420746f6b656e2049440000000000000000600082015250565b7f4552433732313a20617070726f76616c20746f2063757272656e74206f776e6560008201527f7200000000000000000000000000000000000000000000000000000000000000602082015250565b50565b7f4552433732313a20617070726f76652063616c6c6572206973206e6f7420746f60008201527f6b656e206f776e6572206f7220617070726f76656420666f7220616c6c000000602082015250565b613c6f816135bc565b8114613c7a57600080fd5b50565b613c86816135ce565b8114613c9157600080fd5b50565b613c9d816135e4565b8114613ca857600080fd5b50565b613cb48161363e565b8114613cbf57600080fd5b5056fea2646970667358221220ac7ceb3dcb720023b7ea31e5bc5a345412c2f3318e459c43336b4486f513df0364736f6c63430008070033",
  "devdoc": {
    "kind": "dev",
    "methods": {
      "approve(address,uint256)": {
        "details": "See {IERC721-approve}."
      },
      "balanceOf(address)": {
        "details": "See {IERC721-balanceOf}."
      },
      "getApproved(uint256)": {
        "details": "See {IERC721-getApproved}."
      },
      "isApprovedForAll(address,address)": {
        "details": "See {IERC721-isApprovedForAll}."
      },
      "name()": {
        "details": "See {IERC721Metadata-name}."
      },
      "owner()": {
        "details": "Returns the address of the current owner."
      },
      "ownerOf(uint256)": {
        "details": "See {IERC721-ownerOf}."
      },
      "renounceOwnership()": {
        "details": "Leaves the contract without owner. It will not be possible to call `onlyOwner` functions anymore. Can only be called by the current owner. NOTE: Renouncing ownership will leave the contract without an owner, thereby removing any functionality that is only available to the owner."
      },
      "safeTransferFrom(address,address,uint256)": {
        "details": "See {IERC721-safeTransferFrom}."
      },
      "safeTransferFrom(address,address,uint256,bytes)": {
        "details": "See {IERC721-safeTransferFrom}."
      },
      "setApprovalForAll(address,bool)": {
        "details": "See {IERC721-setApprovalForAll}."
      },
      "supportsInterface(bytes4)": {
        "details": "See {IERC165-supportsInterface}."
      },
      "symbol()": {
        "details": "See {IERC721Metadata-symbol}."
      },
      "tokenURI(uint256)": {
        "details": "See {IERC721Metadata-tokenURI}."
      },
      "transferFrom(address,address,uint256)": {
        "details": "See {IERC721-transferFrom}."
      },
      "transferOwnership(address)": {
        "details": "Transfers ownership of the contract to a new account (`newOwner`). Can only be called by the current owner."
      }
    },
    "version": 1
  },
  "userdoc": {
    "kind": "user",
    "methods": {},
    "version": 1
  },
  "storageLayout": {
    "storage": [
      {
        "astId": 1296,
        "contract": "contracts/RandomIpfsNft.sol:RandomIpfsNft",
        "label": "_name",
        "offset": 0,
        "slot": "0",
        "type": "t_string_storage"
      },
      {
        "astId": 1298,
        "contract": "contracts/RandomIpfsNft.sol:RandomIpfsNft",
        "label": "_symbol",
        "offset": 0,
        "slot": "1",
        "type": "t_string_storage"
      },
      {
        "astId": 1302,
        "contract": "contracts/RandomIpfsNft.sol:RandomIpfsNft",
        "label": "_owners",
        "offset": 0,
        "slot": "2",
        "type": "t_mapping(t_uint256,t_address)"
      },
      {
        "astId": 1306,
        "contract": "contracts/RandomIpfsNft.sol:RandomIpfsNft",
        "label": "_balances",
        "offset": 0,
        "slot": "3",
        "type": "t_mapping(t_address,t_uint256)"
      },
      {
        "astId": 1310,
        "contract": "contracts/RandomIpfsNft.sol:RandomIpfsNft",
        "label": "_tokenApprovals",
        "offset": 0,
        "slot": "4",
        "type": "t_mapping(t_uint256,t_address)"
      },
      {
        "astId": 1316,
        "contract": "contracts/RandomIpfsNft.sol:RandomIpfsNft",
        "label": "_operatorApprovals",
        "offset": 0,
        "slot": "5",
        "type": "t_mapping(t_address,t_mapping(t_address,t_bool))"
      },
      {
        "astId": 2362,
        "contract": "contracts/RandomIpfsNft.sol:RandomIpfsNft",
        "label": "_tokenURIs",
        "offset": 0,
        "slot": "6",
        "type": "t_mapping(t_uint256,t_string_storage)"
      },
      {
        "astId": 1165,
        "contract": "contracts/RandomIpfsNft.sol:RandomIpfsNft",
        "label": "_owner",
        "offset": 0,
        "slot": "7",
        "type": "t_address"
      },
      {
        "astId": 4369,
        "contract": "contracts/RandomIpfsNft.sol:RandomIpfsNft",
        "label": "s_tokenCounter",
        "offset": 0,
        "slot": "8",
        "type": "t_uint256"
      },
      {
        "astId": 4373,
        "contract": "contracts/RandomIpfsNft.sol:RandomIpfsNft",
        "label": "requestIdToAddress",
        "offset": 0,
        "slot": "9",
        "type": "t_mapping(t_uint256,t_address)"
      },
      {
        "astId": 4376,
        "contract": "contracts/RandomIpfsNft.sol:RandomIpfsNft",
        "label": "s_requestIDs",
        "offset": 0,
        "slot": "10",
        "type": "t_array(t_uint256)dyn_storage"
      },
      {
        "astId": 4382,
        "contract": "contracts/RandomIpfsNft.sol:RandomIpfsNft",
        "label": "s_waifuTokenUris",
        "offset": 0,
        "slot": "11",
        "type": "t_array(t_string_storage)dyn_storage"
      }
    ],
    "types": {
      "t_address": {
        "encoding": "inplace",
        "label": "address",
        "numberOfBytes": "20"
      },
      "t_array(t_string_storage)dyn_storage": {
        "base": "t_string_storage",
        "encoding": "dynamic_array",
        "label": "string[]",
        "numberOfBytes": "32"
      },
      "t_array(t_uint256)dyn_storage": {
        "base": "t_uint256",
        "encoding": "dynamic_array",
        "label": "uint256[]",
        "numberOfBytes": "32"
      },
      "t_bool": {
        "encoding": "inplace",
        "label": "bool",
        "numberOfBytes": "1"
      },
      "t_mapping(t_address,t_bool)": {
        "encoding": "mapping",
        "key": "t_address",
        "label": "mapping(address => bool)",
        "numberOfBytes": "32",
        "value": "t_bool"
      },
      "t_mapping(t_address,t_mapping(t_address,t_bool))": {
        "encoding": "mapping",
        "key": "t_address",
        "label": "mapping(address => mapping(address => bool))",
        "numberOfBytes": "32",
        "value": "t_mapping(t_address,t_bool)"
      },
      "t_mapping(t_address,t_uint256)": {
        "encoding": "mapping",
        "key": "t_address",
        "label": "mapping(address => uint256)",
        "numberOfBytes": "32",
        "value": "t_uint256"
      },
      "t_mapping(t_uint256,t_address)": {
        "encoding": "mapping",
        "key": "t_uint256",
        "label": "mapping(uint256 => address)",
        "numberOfBytes": "32",
        "value": "t_address"
      },
      "t_mapping(t_uint256,t_string_storage)": {
        "encoding": "mapping",
        "key": "t_uint256",
        "label": "mapping(uint256 => string)",
        "numberOfBytes": "32",
        "value": "t_string_storage"
      },
      "t_string_storage": {
        "encoding": "bytes",
        "label": "string",
        "numberOfBytes": "32"
      },
      "t_uint256": {
        "encoding": "inplace",
        "label": "uint256",
        "numberOfBytes": "32"
      }
    }
  }
}